{
  "_format": "hh-sol-artifact-1",
  "contractName": "PublishRegistryV1",
  "sourceName": "contracts/PublishRegistry.sol",
  "abi": [
    {
      "inputs": [
        {
          "internalType": "address",
          "name": "target",
          "type": "address"
        }
      ],
      "name": "AddressEmptyCode",
      "type": "error"
    },
    {
      "inputs": [
        {
          "internalType": "address",
          "name": "implementation",
          "type": "address"
        }
      ],
      "name": "ERC1967InvalidImplementation",
      "type": "error"
    },
    {
      "inputs": [],
      "name": "ERC1967NonPayable",
      "type": "error"
    },
    {
      "inputs": [],
      "name": "FailedCall",
      "type": "error"
    },
    {
      "inputs": [],
      "name": "InvalidInitialization",
      "type": "error"
    },
    {
      "inputs": [],
      "name": "NotInitializing",
      "type": "error"
    },
    {
      "inputs": [
        {
          "internalType": "address",
          "name": "owner",
          "type": "address"
        }
      ],
      "name": "OwnableInvalidOwner",
      "type": "error"
    },
    {
      "inputs": [
        {
          "internalType": "address",
          "name": "account",
          "type": "address"
        }
      ],
      "name": "OwnableUnauthorizedAccount",
      "type": "error"
    },
    {
      "inputs": [],
      "name": "ReentrancyGuardReentrantCall",
      "type": "error"
    },
    {
      "inputs": [],
      "name": "UUPSUnauthorizedCallContext",
      "type": "error"
    },
    {
      "inputs": [
        {
          "internalType": "bytes32",
          "name": "slot",
          "type": "bytes32"
        }
      ],
      "name": "UUPSUnsupportedProxiableUUID",
      "type": "error"
    },
    {
      "inputs": [
        {
          "internalType": "address",
          "name": "account",
          "type": "address"
        }
      ],
      "name": "UnauthorizedAccess",
      "type": "error"
    },
    {
      "anonymous": false,
      "inputs": [
        {
          "indexed": true,
          "internalType": "address",
          "name": "account",
          "type": "address"
        }
      ],
      "name": "AuthorizedAccountAdded",
      "type": "event"
    },
    {
      "anonymous": false,
      "inputs": [
        {
          "indexed": true,
          "internalType": "address",
          "name": "account",
          "type": "address"
        }
      ],
      "name": "AuthorizedAccountRemoved",
      "type": "event"
    },
    {
      "anonymous": false,
      "inputs": [
        {
          "indexed": true,
          "internalType": "bytes32",
          "name": "bookId",
          "type": "bytes32"
        }
      ],
      "name": "BookDeleted",
      "type": "event"
    },
    {
      "anonymous": false,
      "inputs": [
        {
          "indexed": true,
          "internalType": "bytes32",
          "name": "bookId",
          "type": "bytes32"
        },
        {
          "indexed": true,
          "internalType": "address",
          "name": "sender",
          "type": "address"
        },
        {
          "indexed": true,
          "internalType": "address",
          "name": "recipient",
          "type": "address"
        }
      ],
      "name": "BookGifted",
      "type": "event"
    },
    {
      "anonymous": false,
      "inputs": [
        {
          "indexed": true,
          "internalType": "bytes32",
          "name": "legacyBookId",
          "type": "bytes32"
        },
        {
          "indexed": true,
          "internalType": "bytes32",
          "name": "newBookId",
          "type": "bytes32"
        }
      ],
      "name": "BookMigrated",
      "type": "event"
    },
    {
      "anonymous": false,
      "inputs": [
        {
          "indexed": true,
          "internalType": "bytes32",
          "name": "bookId",
          "type": "bytes32"
        },
        {
          "indexed": true,
          "internalType": "address",
          "name": "buyer",
          "type": "address"
        }
      ],
      "name": "BookPurchased",
      "type": "event"
    },
    {
      "anonymous": false,
      "inputs": [
        {
          "indexed": true,
          "internalType": "bytes32",
          "name": "bookId",
          "type": "bytes32"
        },
        {
          "indexed": false,
          "internalType": "string",
          "name": "title",
          "type": "string"
        },
        {
          "indexed": false,
          "internalType": "string",
          "name": "author",
          "type": "string"
        },
        {
          "indexed": false,
          "internalType": "address",
          "name": "author_addr",
          "type": "address"
        },
        {
          "indexed": false,
          "internalType": "string",
          "name": "ipfsHash",
          "type": "string"
        },
        {
          "indexed": false,
          "internalType": "uint256",
          "name": "price",
          "type": "uint256"
        }
      ],
      "name": "BookRegistered",
      "type": "event"
    },
    {
      "anonymous": false,
      "inputs": [
        {
          "indexed": true,
          "internalType": "bytes32",
          "name": "bookId",
          "type": "bytes32"
        },
        {
          "indexed": false,
          "internalType": "string",
          "name": "newTitle",
          "type": "string"
        },
        {
          "indexed": false,
          "internalType": "string",
          "name": "newIpfsHash",
          "type": "string"
        },
        {
          "indexed": false,
          "internalType": "uint256",
          "name": "newPrice",
          "type": "uint256"
        }
      ],
      "name": "BookUpdated",
      "type": "event"
    },
    {
      "anonymous": false,
      "inputs": [
        {
          "indexed": false,
          "internalType": "uint64",
          "name": "version",
          "type": "uint64"
        }
      ],
      "name": "Initialized",
      "type": "event"
    },
    {
      "anonymous": false,
      "inputs": [
        {
          "indexed": true,
          "internalType": "address",
          "name": "previousOwner",
          "type": "address"
        },
        {
          "indexed": true,
          "internalType": "address",
          "name": "newOwner",
          "type": "address"
        }
      ],
      "name": "OwnershipTransferred",
      "type": "event"
    },
    {
      "anonymous": false,
      "inputs": [
        {
          "indexed": true,
          "internalType": "address",
          "name": "buyer",
          "type": "address"
        },
        {
          "indexed": false,
          "internalType": "uint256",
          "name": "amount",
          "type": "uint256"
        }
      ],
      "name": "RefundFailed",
      "type": "event"
    },
    {
      "anonymous": false,
      "inputs": [
        {
          "indexed": true,
          "internalType": "address",
          "name": "implementation",
          "type": "address"
        }
      ],
      "name": "Upgraded",
      "type": "event"
    },
    {
      "inputs": [],
      "name": "UPGRADE_INTERFACE_VERSION",
      "outputs": [
        {
          "internalType": "string",
          "name": "",
          "type": "string"
        }
      ],
      "stateMutability": "view",
      "type": "function"
    },
    {
      "inputs": [
        {
          "internalType": "address",
          "name": "account",
          "type": "address"
        }
      ],
      "name": "addAuthorizedAccount",
      "outputs": [],
      "stateMutability": "nonpayable",
      "type": "function"
    },
    {
      "inputs": [
        {
          "internalType": "address",
          "name": "",
          "type": "address"
        }
      ],
      "name": "authorNonces",
      "outputs": [
        {
          "internalType": "uint256",
          "name": "",
          "type": "uint256"
        }
      ],
      "stateMutability": "view",
      "type": "function"
    },
    {
      "inputs": [
        {
          "internalType": "address",
          "name": "",
          "type": "address"
        }
      ],
      "name": "authorizedAccounts",
      "outputs": [
        {
          "internalType": "bool",
          "name": "",
          "type": "bool"
        }
      ],
      "stateMutability": "view",
      "type": "function"
    },
    {
      "inputs": [
        {
          "internalType": "address",
          "name": "",
          "type": "address"
        }
      ],
      "name": "balances",
      "outputs": [
        {
          "internalType": "uint256",
          "name": "",
          "type": "uint256"
        }
      ],
      "stateMutability": "view",
      "type": "function"
    },
    {
      "inputs": [
        {
          "internalType": "bytes32",
          "name": "",
          "type": "bytes32"
        }
      ],
      "name": "bookEarnings",
      "outputs": [
        {
          "internalType": "uint256",
          "name": "",
          "type": "uint256"
        }
      ],
      "stateMutability": "view",
      "type": "function"
    },
    {
      "inputs": [
        {
          "internalType": "bytes32",
          "name": "",
          "type": "bytes32"
        }
      ],
      "name": "bookOwners",
      "outputs": [
        {
          "internalType": "address",
          "name": "",
          "type": "address"
        }
      ],
      "stateMutability": "view",
      "type": "function"
    },
    {
      "inputs": [
        {
          "internalType": "bytes32",
          "name": "",
          "type": "bytes32"
        }
      ],
      "name": "books",
      "outputs": [
        {
          "internalType": "string",
          "name": "title",
          "type": "string"
        },
        {
          "internalType": "string",
          "name": "author",
          "type": "string"
        },
        {
          "internalType": "address",
          "name": "author_addr",
          "type": "address"
        },
        {
          "internalType": "string",
          "name": "ipfsHash",
          "type": "string"
        },
        {
          "internalType": "uint256",
          "name": "timestamp",
          "type": "uint256"
        },
        {
          "internalType": "uint256",
          "name": "price",
          "type": "uint256"
        }
      ],
      "stateMutability": "view",
      "type": "function"
    },
    {
      "inputs": [
        {
          "internalType": "bytes32",
          "name": "_bookId",
          "type": "bytes32"
        },
        {
          "internalType": "address",
          "name": "user",
          "type": "address"
        }
      ],
      "name": "checkPurchaser",
      "outputs": [
        {
          "internalType": "bool",
          "name": "",
          "type": "bool"
        }
      ],
      "stateMutability": "view",
      "type": "function"
    },
    {
      "inputs": [
        {
          "internalType": "bytes32",
          "name": "_bookId",
          "type": "bytes32"
        }
      ],
      "name": "deleteBook",
      "outputs": [],
      "stateMutability": "nonpayable",
      "type": "function"
    },
    {
      "inputs": [
        {
          "internalType": "bytes32",
          "name": "_bookId",
          "type": "bytes32"
        },
        {
          "internalType": "address",
          "name": "author_addr",
          "type": "address"
        }
      ],
      "name": "deleteBookFor",
      "outputs": [],
      "stateMutability": "nonpayable",
      "type": "function"
    },
    {
      "inputs": [
        {
          "internalType": "bytes32",
          "name": "_bookId",
          "type": "bytes32"
        }
      ],
      "name": "getBook",
      "outputs": [
        {
          "internalType": "string",
          "name": "",
          "type": "string"
        },
        {
          "internalType": "string",
          "name": "",
          "type": "string"
        },
        {
          "internalType": "address",
          "name": "",
          "type": "address"
        },
        {
          "internalType": "string",
          "name": "",
          "type": "string"
        },
        {
          "internalType": "uint256",
          "name": "",
          "type": "uint256"
        },
        {
          "internalType": "uint256",
          "name": "",
          "type": "uint256"
        }
      ],
      "stateMutability": "view",
      "type": "function"
    },
    {
      "inputs": [
        {
          "internalType": "bytes32",
          "name": "_bookId",
          "type": "bytes32"
        }
      ],
      "name": "getBookEarnings",
      "outputs": [
        {
          "internalType": "uint256",
          "name": "",
          "type": "uint256"
        }
      ],
      "stateMutability": "view",
      "type": "function"
    },
    {
      "inputs": [
        {
          "internalType": "bytes32",
          "name": "_bookId",
          "type": "bytes32"
        },
        {
          "internalType": "address",
          "name": "recipient",
          "type": "address"
        }
      ],
      "name": "giftBook",
      "outputs": [],
      "stateMutability": "payable",
      "type": "function"
    },
    {
      "inputs": [],
      "name": "initialize",
      "outputs": [],
      "stateMutability": "nonpayable",
      "type": "function"
    },
    {
      "inputs": [
        {
          "internalType": "bytes32",
          "name": "",
          "type": "bytes32"
        }
      ],
      "name": "isDeleted",
      "outputs": [
        {
          "internalType": "bool",
          "name": "",
          "type": "bool"
        }
      ],
      "stateMutability": "view",
      "type": "function"
    },
    {
      "inputs": [
        {
          "internalType": "string",
          "name": "_title",
          "type": "string"
        },
        {
          "internalType": "string",
          "name": "_author",
          "type": "string"
        },
        {
          "internalType": "address",
          "name": "author_addr",
          "type": "address"
        },
        {
          "internalType": "string",
          "name": "_ipfsHash",
          "type": "string"
        },
        {
          "internalType": "uint256",
          "name": "_price",
          "type": "uint256"
        },
        {
          "internalType": "bytes32",
          "name": "legacyBookId",
          "type": "bytes32"
        }
      ],
      "name": "migrateBook",
      "outputs": [
        {
          "internalType": "bytes32",
          "name": "newBookId",
          "type": "bytes32"
        }
      ],
      "stateMutability": "nonpayable",
      "type": "function"
    },
    {
      "inputs": [],
      "name": "owner",
      "outputs": [
        {
          "internalType": "address",
          "name": "",
          "type": "address"
        }
      ],
      "stateMutability": "view",
      "type": "function"
    },
    {
      "inputs": [],
      "name": "proxiableUUID",
      "outputs": [
        {
          "internalType": "bytes32",
          "name": "",
          "type": "bytes32"
        }
      ],
      "stateMutability": "view",
      "type": "function"
    },
    {
      "inputs": [
        {
          "internalType": "string",
          "name": "_title",
          "type": "string"
        },
        {
          "internalType": "string",
          "name": "_author",
          "type": "string"
        },
        {
          "internalType": "string",
          "name": "_ipfsHash",
          "type": "string"
        },
        {
          "internalType": "uint256",
          "name": "_price",
          "type": "uint256"
        }
      ],
      "name": "publishBook",
      "outputs": [],
      "stateMutability": "nonpayable",
      "type": "function"
    },
    {
      "inputs": [
        {
          "internalType": "string",
          "name": "_title",
          "type": "string"
        },
        {
          "internalType": "string",
          "name": "_author",
          "type": "string"
        },
        {
          "internalType": "string",
          "name": "_ipfsHash",
          "type": "string"
        },
        {
          "internalType": "uint256",
          "name": "_price",
          "type": "uint256"
        },
        {
          "internalType": "address",
          "name": "author_addr",
          "type": "address"
        }
      ],
      "name": "publishBookFor",
      "outputs": [],
      "stateMutability": "nonpayable",
      "type": "function"
    },
    {
      "inputs": [
        {
          "internalType": "bytes32",
          "name": "_bookId",
          "type": "bytes32"
        }
      ],
      "name": "purchaseBook",
      "outputs": [],
      "stateMutability": "payable",
      "type": "function"
    },
    {
      "inputs": [
        {
          "internalType": "bytes32",
          "name": "",
          "type": "bytes32"
        },
        {
          "internalType": "address",
          "name": "",
          "type": "address"
        }
      ],
      "name": "purchasers",
      "outputs": [
        {
          "internalType": "bool",
          "name": "",
          "type": "bool"
        }
      ],
      "stateMutability": "view",
      "type": "function"
    },
    {
      "inputs": [
        {
          "internalType": "address",
          "name": "account",
          "type": "address"
        }
      ],
      "name": "removeAuthorizedAccount",
      "outputs": [],
      "stateMutability": "nonpayable",
      "type": "function"
    },
    {
      "inputs": [],
      "name": "renounceOwnership",
      "outputs": [],
      "stateMutability": "nonpayable",
      "type": "function"
    },
    {
      "inputs": [
        {
          "internalType": "address",
          "name": "newOwner",
          "type": "address"
        }
      ],
      "name": "transferOwnership",
      "outputs": [],
      "stateMutability": "nonpayable",
      "type": "function"
    },
    {
      "inputs": [
        {
          "internalType": "bytes32",
          "name": "_bookId",
          "type": "bytes32"
        },
        {
          "internalType": "string",
          "name": "_newTitle",
          "type": "string"
        },
        {
          "internalType": "string",
          "name": "_newIpfsHash",
          "type": "string"
        },
        {
          "internalType": "uint256",
          "name": "_newPrice",
          "type": "uint256"
        }
      ],
      "name": "updateBookInfo",
      "outputs": [],
      "stateMutability": "nonpayable",
      "type": "function"
    },
    {
      "inputs": [
        {
          "internalType": "bytes32",
          "name": "_bookId",
          "type": "bytes32"
        },
        {
          "internalType": "string",
          "name": "_newTitle",
          "type": "string"
        },
        {
          "internalType": "string",
          "name": "_newIpfsHash",
          "type": "string"
        },
        {
          "internalType": "uint256",
          "name": "_newPrice",
          "type": "uint256"
        },
        {
          "internalType": "address",
          "name": "author_addr",
          "type": "address"
        }
      ],
      "name": "updateBookInfoFor",
      "outputs": [],
      "stateMutability": "nonpayable",
      "type": "function"
    },
    {
      "inputs": [
        {
          "internalType": "address",
          "name": "newImplementation",
          "type": "address"
        },
        {
          "internalType": "bytes",
          "name": "data",
          "type": "bytes"
        }
      ],
      "name": "upgradeToAndCall",
      "outputs": [],
      "stateMutability": "payable",
      "type": "function"
    },
    {
      "inputs": [],
      "name": "withdrawFunds",
      "outputs": [],
      "stateMutability": "nonpayable",
      "type": "function"
    },
    {
      "inputs": [
        {
          "internalType": "address",
          "name": "author_addr",
          "type": "address"
        }
      ],
      "name": "withdrawFundsFor",
      "outputs": [],
      "stateMutability": "nonpayable",
      "type": "function"
    }
  ],
  "bytecode": "0x60a06040523073ffffffffffffffffffffffffffffffffffffffff1660809073ffffffffffffffffffffffffffffffffffffffff168152503480156041575f5ffd5b506080516158496100685f395f8181613769015281816137be015261397801526158495ff3fe6080604052600436106101d7575f3560e01c8063715018a611610101578063ad3cb1cc11610094578063c02e72ca11610063578063c02e72ca146106c5578063dfbe758c146106ed578063f2fde38b14610715578063f547ec671461073d576101d7565b8063ad3cb1cc1461060f578063af583ae314610639578063b235730b14610675578063be47aa091461069d576101d7565b80638833054d116100d05780638833054d146105605780638da5cb5b1461057c578063a924c043146105a6578063ad1a7d0c146105ce576101d7565b8063715018a6146104bc578063801ba24e146104d25780638129fc1c1461050e57806384973eb314610524576101d7565b80633f2b9bb31161017957806363dcd5991161014857806363dcd599146103f4578063678233251461041c57806367995373146104585780636ee012fc14610480576101d7565b80633f2b9bb31461034a5780634a3c96a4146103865780634f1ef286146103ae57806352d1902d146103ca576101d7565b806324600fc3116101b557806324600fc31461028057806324ba58841461029657806327e235e3146102d257806338a00a801461030e576101d7565b80630c0dee70146101db5780630ca8f5391461021c578063124fca3714610244575b5f5ffd5b3480156101e6575f5ffd5b5061020160048036038101906101fc91906140fa565b610759565b604051610213969594939291906141ec565b60405180910390f35b348015610227575f5ffd5b50610242600480360381019061023d91906143e0565b610942565b005b34801561024f575f5ffd5b5061026a600480360381019061026591906140fa565b610c70565b604051610277919061448f565b60405180910390f35b34801561028b575f5ffd5b50610294610d28565b005b3480156102a1575f5ffd5b506102bc60048036038101906102b791906144a8565b610ea9565b6040516102c991906144ed565b60405180910390f35b3480156102dd575f5ffd5b506102f860048036038101906102f391906144a8565b610ec5565b604051610305919061448f565b60405180910390f35b348015610319575f5ffd5b50610334600480360381019061032f9190614506565b610eda565b60405161034191906144ed565b60405180910390f35b348015610355575f5ffd5b50610370600480360381019061036b91906144a8565b610f04565b60405161037d919061448f565b60405180910390f35b348015610391575f5ffd5b506103ac60048036038101906103a79190614544565b610f19565b005b6103c860048036038101906103c391906146ad565b6112e3565b005b3480156103d5575f5ffd5b506103de611302565b6040516103eb9190614716565b60405180910390f35b3480156103ff575f5ffd5b5061041a600480360381019061041591906140fa565b611333565b005b348015610427575f5ffd5b50610442600480360381019061043d91906140fa565b61156f565b60405161044f91906144ed565b60405180910390f35b348015610463575f5ffd5b5061047e60048036038101906104799190614506565b61158c565b005b34801561048b575f5ffd5b506104a660048036038101906104a191906140fa565b611853565b6040516104b3919061472f565b60405180910390f35b3480156104c7575f5ffd5b506104d0611883565b005b3480156104dd575f5ffd5b506104f860048036038101906104f391906140fa565b611896565b604051610505919061448f565b60405180910390f35b348015610519575f5ffd5b506105226118ab565b005b34801561052f575f5ffd5b5061054a60048036038101906105459190614506565b611a7f565b60405161055791906144ed565b60405180910390f35b61057a60048036038101906105759190614506565b611b0d565b005b348015610587575f5ffd5b50610590612230565b60405161059d919061472f565b60405180910390f35b3480156105b1575f5ffd5b506105cc60048036038101906105c791906144a8565b612265565b005b3480156105d9575f5ffd5b506105f460048036038101906105ef91906140fa565b612307565b604051610606969594939291906141ec565b60405180910390f35b34801561061a575f5ffd5b50610623612579565b6040516106309190614748565b60405180910390f35b348015610644575f5ffd5b5061065f600480360381019061065a9190614768565b6125b2565b60405161066c9190614716565b60405180910390f35b348015610680575f5ffd5b5061069b60048036038101906106969190614845565b612842565b005b3480156106a8575f5ffd5b506106c360048036038101906106be91906144a8565b612ae5565b005b3480156106d0575f5ffd5b506106eb60048036038101906106e691906144a8565b612b86565b005b3480156106f8575f5ffd5b50610713600480360381019061070e91906148e1565b612d92565b005b348015610720575f5ffd5b5061073b600480360381019061073691906144a8565b613063565b005b610757600480360381019061075291906140fa565b6130e7565b005b6004602052805f5260405f205f91509050805f018054610778906149c6565b80601f01602080910402602001604051908101604052809291908181526020018280546107a4906149c6565b80156107ef5780601f106107c6576101008083540402835291602001916107ef565b820191905f5260205f20905b8154815290600101906020018083116107d257829003601f168201915b505050505090806001018054610804906149c6565b80601f0160208091040260200160405190810160405280929190818152602001828054610830906149c6565b801561087b5780601f106108525761010080835404028352916020019161087b565b820191905f5260205f20905b81548152906001019060200180831161085e57829003601f168201915b505050505090806002015f9054906101000a900473ffffffffffffffffffffffffffffffffffffffff16908060030180546108b5906149c6565b80601f01602080910402602001604051908101604052809291908181526020018280546108e1906149c6565b801561092c5780601f106109035761010080835404028352916020019161092c565b820191905f5260205f20905b81548152906001019060200180831161090f57829003601f168201915b5050505050908060040154908060050154905086565b5f5f3373ffffffffffffffffffffffffffffffffffffffff1673ffffffffffffffffffffffffffffffffffffffff1681526020019081526020015f205f9054906101000a900460ff166109cc57336040517fdccef9640000000000000000000000000000000000000000000000000000000081526004016109c3919061472f565b60405180910390fd5b5f73ffffffffffffffffffffffffffffffffffffffff1660055f8781526020019081526020015f205f9054906101000a900473ffffffffffffffffffffffffffffffffffffffff1673ffffffffffffffffffffffffffffffffffffffff1603610a6a576040517f08c379a0000000000000000000000000000000000000000000000000000000008152600401610a6190614a40565b60405180910390fd5b8073ffffffffffffffffffffffffffffffffffffffff1660055f8781526020019081526020015f205f9054906101000a900473ffffffffffffffffffffffffffffffffffffffff1673ffffffffffffffffffffffffffffffffffffffff1614610b08576040517f08c379a0000000000000000000000000000000000000000000000000000000008152600401610aff90614ace565b60405180910390fd5b60075f8681526020019081526020015f205f9054906101000a900460ff1615610b66576040517f08c379a0000000000000000000000000000000000000000000000000000000008152600401610b5d90614b36565b60405180910390fd5b5f845111610ba9576040517f08c379a0000000000000000000000000000000000000000000000000000000008152600401610ba090614b9e565b60405180910390fd5b5f835111610bec576040517f08c379a0000000000000000000000000000000000000000000000000000000008152600401610be390614c06565b60405180910390fd5b5f60045f8781526020019081526020015f20905084815f019081610c109190614dc4565b5083816003019081610c229190614dc4565b50828160050181905550857f77287690d8485408dc856625ef25e33167e4a0bddc3fc797d70043c702174da1868686604051610c6093929190614e93565b60405180910390a2505050505050565b5f3373ffffffffffffffffffffffffffffffffffffffff1660055f8481526020019081526020015f205f9054906101000a900473ffffffffffffffffffffffffffffffffffffffff1673ffffffffffffffffffffffffffffffffffffffff1614610d0f576040517f08c379a0000000000000000000000000000000000000000000000000000000008152600401610d0690614f20565b60405180910390fd5b60035f8381526020019081526020015f20549050919050565b610d30613716565b5f60025f3373ffffffffffffffffffffffffffffffffffffffff1673ffffffffffffffffffffffffffffffffffffffff1681526020019081526020015f205490505f8111610db3576040517f08c379a0000000000000000000000000000000000000000000000000000000008152600401610daa90614f88565b60405180910390fd5b5f60025f3373ffffffffffffffffffffffffffffffffffffffff1673ffffffffffffffffffffffffffffffffffffffff1681526020019081526020015f20819055505f3373ffffffffffffffffffffffffffffffffffffffff1682604051610e1a90614fd3565b5f6040518083038185875af1925050503d805f8114610e54576040519150601f19603f3d011682016040523d82523d5f602084013e610e59565b606091505b5050905080610e9d576040517f08c379a0000000000000000000000000000000000000000000000000000000008152600401610e9490615031565b60405180910390fd5b5050610ea7613743565b565b5f602052805f5260405f205f915054906101000a900460ff1681565b6002602052805f5260405f205f915090505481565b6006602052815f5260405f20602052805f5260405f205f915091509054906101000a900460ff1681565b6001602052805f5260405f205f915090505481565b5f5f3373ffffffffffffffffffffffffffffffffffffffff1673ffffffffffffffffffffffffffffffffffffffff1681526020019081526020015f205f9054906101000a900460ff16610fa357336040517fdccef964000000000000000000000000000000000000000000000000000000008152600401610f9a919061472f565b60405180910390fd5b5f855111610fe6576040517f08c379a0000000000000000000000000000000000000000000000000000000008152600401610fdd90614b9e565b60405180910390fd5b5f845111611029576040517f08c379a000000000000000000000000000000000000000000000000000000000815260040161102090615099565b60405180910390fd5b5f83511161106c576040517f08c379a000000000000000000000000000000000000000000000000000000000815260040161106390614c06565b60405180910390fd5b5f73ffffffffffffffffffffffffffffffffffffffff168173ffffffffffffffffffffffffffffffffffffffff16036110da576040517f08c379a00000000000000000000000000000000000000000000000000000000081526004016110d190615101565b60405180910390fd5b5f60015f8373ffffffffffffffffffffffffffffffffffffffff1673ffffffffffffffffffffffffffffffffffffffff1681526020019081526020015f205f8154809291906111289061514c565b9190505590505f82826040516020016111429291906151f8565b6040516020818303038152906040528051906020012090506040518060c001604052808881526020018781526020018473ffffffffffffffffffffffffffffffffffffffff1681526020018681526020014281526020018581525060045f8381526020019081526020015f205f820151815f0190816111c19190614dc4565b5060208201518160010190816111d79190614dc4565b506040820151816002015f6101000a81548173ffffffffffffffffffffffffffffffffffffffff021916908373ffffffffffffffffffffffffffffffffffffffff16021790555060608201518160030190816112339190614dc4565b506080820151816004015560a082015181600501559050508260055f8381526020019081526020015f205f6101000a81548173ffffffffffffffffffffffffffffffffffffffff021916908373ffffffffffffffffffffffffffffffffffffffff160217905550807f4dd2fe37361f25794d48d66f93930b6fc8d9020eacef524c420ba04167260de888888689896040516112d2959493929190615223565b60405180910390a250505050505050565b6112eb613767565b6112f48261384d565b6112fe8282613858565b5050565b5f61130b613976565b7f360894a13ba1a3210667c828492db98dca3e2076cc3735a920a3ca505d382bbc5f1b905090565b5f73ffffffffffffffffffffffffffffffffffffffff1660055f8381526020019081526020015f205f9054906101000a900473ffffffffffffffffffffffffffffffffffffffff1673ffffffffffffffffffffffffffffffffffffffff16036113d1576040517f08c379a00000000000000000000000000000000000000000000000000000000081526004016113c890614a40565b60405180910390fd5b3373ffffffffffffffffffffffffffffffffffffffff1660055f8381526020019081526020015f205f9054906101000a900473ffffffffffffffffffffffffffffffffffffffff1673ffffffffffffffffffffffffffffffffffffffff161461146f576040517f08c379a0000000000000000000000000000000000000000000000000000000008152600401611466906152f9565b60405180910390fd5b60045f8281526020019081526020015f205f5f82015f61148f919061405e565b600182015f61149e919061405e565b600282015f6101000a81549073ffffffffffffffffffffffffffffffffffffffff0219169055600382015f6114d3919061405e565b600482015f9055600582015f9055505060055f8281526020019081526020015f205f6101000a81549073ffffffffffffffffffffffffffffffffffffffff0219169055600160075f8381526020019081526020015f205f6101000a81548160ff021916908315150217905550807fd97585d48763a5b0690d4768bcb0bd3d7ee80a63f48f23a25532076dcb6bc15660405160405180910390a250565b6007602052805f5260405f205f915054906101000a900460ff1681565b5f5f3373ffffffffffffffffffffffffffffffffffffffff1673ffffffffffffffffffffffffffffffffffffffff1681526020019081526020015f205f9054906101000a900460ff1661161657336040517fdccef96400000000000000000000000000000000000000000000000000000000815260040161160d919061472f565b60405180910390fd5b5f73ffffffffffffffffffffffffffffffffffffffff1660055f8481526020019081526020015f205f9054906101000a900473ffffffffffffffffffffffffffffffffffffffff1673ffffffffffffffffffffffffffffffffffffffff16036116b4576040517f08c379a00000000000000000000000000000000000000000000000000000000081526004016116ab90614a40565b60405180910390fd5b8073ffffffffffffffffffffffffffffffffffffffff1660055f8481526020019081526020015f205f9054906101000a900473ffffffffffffffffffffffffffffffffffffffff1673ffffffffffffffffffffffffffffffffffffffff1614611752576040517f08c379a0000000000000000000000000000000000000000000000000000000008152600401611749906152f9565b60405180910390fd5b60045f8381526020019081526020015f205f5f82015f611772919061405e565b600182015f611781919061405e565b600282015f6101000a81549073ffffffffffffffffffffffffffffffffffffffff0219169055600382015f6117b6919061405e565b600482015f9055600582015f9055505060055f8381526020019081526020015f205f6101000a81549073ffffffffffffffffffffffffffffffffffffffff0219169055600160075f8481526020019081526020015f205f6101000a81548160ff021916908315150217905550817fd97585d48763a5b0690d4768bcb0bd3d7ee80a63f48f23a25532076dcb6bc15660405160405180910390a25050565b6005602052805f5260405f205f915054906101000a900473ffffffffffffffffffffffffffffffffffffffff1681565b61188b6139fd565b6118945f613a84565b565b6003602052805f5260405f205f915090505481565b5f6118b4613b55565b90505f815f0160089054906101000a900460ff161590505f825f015f9054906101000a900467ffffffffffffffff1690505f5f8267ffffffffffffffff161480156118fc5750825b90505f60018367ffffffffffffffff1614801561192f57505f3073ffffffffffffffffffffffffffffffffffffffff163b145b90508115801561193d575080155b15611974576040517ff92ee8a900000000000000000000000000000000000000000000000000000000815260040160405180910390fd5b6001855f015f6101000a81548167ffffffffffffffff021916908367ffffffffffffffff16021790555083156119c1576001855f0160086101000a81548160ff0219169083151502179055505b6119ca33613b68565b60015f5f3373ffffffffffffffffffffffffffffffffffffffff1673ffffffffffffffffffffffffffffffffffffffff1681526020019081526020015f205f6101000a81548160ff0219169083151502179055508315611a78575f855f0160086101000a81548160ff0219169083151502179055507fc7f505b2f371ae2175ee4913f4499e1f2633a7b5936321eed1cdaeb6115181d26001604051611a6f9190615363565b60405180910390a15b5050505050565b5f60075f8481526020019081526020015f205f9054906101000a900460ff1615611aab575f9050611b07565b60065f8481526020019081526020015f205f8373ffffffffffffffffffffffffffffffffffffffff1673ffffffffffffffffffffffffffffffffffffffff1681526020019081526020015f205f9054906101000a900460ff1690505b92915050565b611b15613716565b5f73ffffffffffffffffffffffffffffffffffffffff1660055f8481526020019081526020015f205f9054906101000a900473ffffffffffffffffffffffffffffffffffffffff1673ffffffffffffffffffffffffffffffffffffffff1603611bb3576040517f08c379a0000000000000000000000000000000000000000000000000000000008152600401611baa906153c6565b60405180910390fd5b3373ffffffffffffffffffffffffffffffffffffffff168173ffffffffffffffffffffffffffffffffffffffff1603611c21576040517f08c379a0000000000000000000000000000000000000000000000000000000008152600401611c189061542e565b60405180910390fd5b5f73ffffffffffffffffffffffffffffffffffffffff168173ffffffffffffffffffffffffffffffffffffffff1603611c8f576040517f08c379a0000000000000000000000000000000000000000000000000000000008152600401611c8690615496565b60405180910390fd5b60065f8381526020019081526020015f205f8273ffffffffffffffffffffffffffffffffffffffff1673ffffffffffffffffffffffffffffffffffffffff1681526020019081526020015f205f9054906101000a900460ff1615611d28576040517f08c379a0000000000000000000000000000000000000000000000000000000008152600401611d1f906154fe565b60405180910390fd5b60075f8381526020019081526020015f205f9054906101000a900460ff1615611d86576040517f08c379a0000000000000000000000000000000000000000000000000000000008152600401611d7d90614b36565b60405180910390fd5b5f60045f8481526020019081526020015f206040518060c00160405290815f82018054611db2906149c6565b80601f0160208091040260200160405190810160405280929190818152602001828054611dde906149c6565b8015611e295780601f10611e0057610100808354040283529160200191611e29565b820191905f5260205f20905b815481529060010190602001808311611e0c57829003601f168201915b50505050508152602001600182018054611e42906149c6565b80601f0160208091040260200160405190810160405280929190818152602001828054611e6e906149c6565b8015611eb95780601f10611e9057610100808354040283529160200191611eb9565b820191905f5260205f20905b815481529060010190602001808311611e9c57829003601f168201915b50505050508152602001600282015f9054906101000a900473ffffffffffffffffffffffffffffffffffffffff1673ffffffffffffffffffffffffffffffffffffffff1673ffffffffffffffffffffffffffffffffffffffff168152602001600382018054611f27906149c6565b80601f0160208091040260200160405190810160405280929190818152602001828054611f53906149c6565b8015611f9e5780601f10611f7557610100808354040283529160200191611f9e565b820191905f5260205f20905b815481529060010190602001808311611f8157829003601f168201915b505050505081526020016004820154815260200160058201548152505090508060a00151341015612004576040517f08c379a0000000000000000000000000000000000000000000000000000000008152600401611ffb90615566565b60405180910390fd5b5f8160a00151346120159190615584565b90508160a0015160025f846040015173ffffffffffffffffffffffffffffffffffffffff1673ffffffffffffffffffffffffffffffffffffffff1681526020019081526020015f205f82825461206b91906155b7565b925050819055508160a0015160035f8681526020019081526020015f205f82825461209691906155b7565b92505081905550600160065f8681526020019081526020015f205f8573ffffffffffffffffffffffffffffffffffffffff1673ffffffffffffffffffffffffffffffffffffffff1681526020019081526020015f205f6101000a81548160ff0219169083151502179055505f8111156121c7575f3373ffffffffffffffffffffffffffffffffffffffff168260405161212e90614fd3565b5f6040518083038185875af1925050503d805f8114612168576040519150601f19603f3d011682016040523d82523d5f602084013e61216d565b606091505b50509050806121c5573373ffffffffffffffffffffffffffffffffffffffff167faf73b0b217208b61be286bbc37095bce7eb8b9ccf617244c2f0f154e8e04e3ff836040516121bc919061448f565b60405180910390a25b505b8273ffffffffffffffffffffffffffffffffffffffff163373ffffffffffffffffffffffffffffffffffffffff16857f5267a11f673252311c3edb7753b87eefd26429cae75d2912658361ca5fa1736f60405160405180910390a4505061222c613743565b5050565b5f5f61223a613b7c565b9050805f015f9054906101000a900473ffffffffffffffffffffffffffffffffffffffff1691505090565b61226d6139fd565b60015f5f8373ffffffffffffffffffffffffffffffffffffffff1673ffffffffffffffffffffffffffffffffffffffff1681526020019081526020015f205f6101000a81548160ff0219169083151502179055508073ffffffffffffffffffffffffffffffffffffffff167f5d4494741d465e91754a74831c82925e4f848bc6c191d4324527b5a1e9628ed460405160405180910390a250565b6060805f60605f5f5f60045f8981526020019081526020015f206040518060c00160405290815f8201805461233b906149c6565b80601f0160208091040260200160405190810160405280929190818152602001828054612367906149c6565b80156123b25780601f10612389576101008083540402835291602001916123b2565b820191905f5260205f20905b81548152906001019060200180831161239557829003601f168201915b505050505081526020016001820180546123cb906149c6565b80601f01602080910402602001604051908101604052809291908181526020018280546123f7906149c6565b80156124425780601f1061241957610100808354040283529160200191612442565b820191905f5260205f20905b81548152906001019060200180831161242557829003601f168201915b50505050508152602001600282015f9054906101000a900473ffffffffffffffffffffffffffffffffffffffff1673ffffffffffffffffffffffffffffffffffffffff1673ffffffffffffffffffffffffffffffffffffffff1681526020016003820180546124b0906149c6565b80601f01602080910402602001604051908101604052809291908181526020018280546124dc906149c6565b80156125275780601f106124fe57610100808354040283529160200191612527565b820191905f5260205f20905b81548152906001019060200180831161250a57829003601f168201915b50505050508152602001600482015481526020016005820154815250509050805f015181602001518260400151836060015184608001518560a001519650965096509650965096505091939550919395565b6040518060400160405280600581526020017f352e302e3000000000000000000000000000000000000000000000000000000081525081565b5f6125bb6139fd565b86868585426040516020016125d4959493929190615624565b6040516020818303038152906040528051906020012090505f73ffffffffffffffffffffffffffffffffffffffff1660055f8381526020019081526020015f205f9054906101000a900473ffffffffffffffffffffffffffffffffffffffff1673ffffffffffffffffffffffffffffffffffffffff161461268a576040517f08c379a0000000000000000000000000000000000000000000000000000000008152600401612681906156c0565b60405180910390fd5b6040518060c001604052808881526020018781526020018673ffffffffffffffffffffffffffffffffffffffff1681526020018581526020014281526020018481525060045f8381526020019081526020015f205f820151815f0190816126f19190614dc4565b5060208201518160010190816127079190614dc4565b506040820151816002015f6101000a81548173ffffffffffffffffffffffffffffffffffffffff021916908373ffffffffffffffffffffffffffffffffffffffff16021790555060608201518160030190816127639190614dc4565b506080820151816004015560a082015181600501559050508460055f8381526020019081526020015f205f6101000a81548173ffffffffffffffffffffffffffffffffffffffff021916908373ffffffffffffffffffffffffffffffffffffffff160217905550807f4dd2fe37361f25794d48d66f93930b6fc8d9020eacef524c420ba04167260de88888888888604051612802959493929190615223565b60405180910390a280827fd3999821baac11cccf884089ac4e908d56c75ea30782191c54b357a63149d6d460405160405180910390a39695505050505050565b5f73ffffffffffffffffffffffffffffffffffffffff1660055f8681526020019081526020015f205f9054906101000a900473ffffffffffffffffffffffffffffffffffffffff1673ffffffffffffffffffffffffffffffffffffffff16036128e0576040517f08c379a00000000000000000000000000000000000000000000000000000000081526004016128d790614a40565b60405180910390fd5b3373ffffffffffffffffffffffffffffffffffffffff1660055f8681526020019081526020015f205f9054906101000a900473ffffffffffffffffffffffffffffffffffffffff1673ffffffffffffffffffffffffffffffffffffffff161461297e576040517f08c379a000000000000000000000000000000000000000000000000000000000815260040161297590614ace565b60405180910390fd5b60075f8581526020019081526020015f205f9054906101000a900460ff16156129dc576040517f08c379a00000000000000000000000000000000000000000000000000000000081526004016129d390614b36565b60405180910390fd5b5f835111612a1f576040517f08c379a0000000000000000000000000000000000000000000000000000000008152600401612a1690614b9e565b60405180910390fd5b5f825111612a62576040517f08c379a0000000000000000000000000000000000000000000000000000000008152600401612a5990614c06565b60405180910390fd5b5f60045f8681526020019081526020015f20905083815f019081612a869190614dc4565b5082816003019081612a989190614dc4565b50818160050181905550847f77287690d8485408dc856625ef25e33167e4a0bddc3fc797d70043c702174da1858585604051612ad693929190614e93565b60405180910390a25050505050565b612aed6139fd565b5f5f5f8373ffffffffffffffffffffffffffffffffffffffff1673ffffffffffffffffffffffffffffffffffffffff1681526020019081526020015f205f6101000a81548160ff0219169083151502179055508073ffffffffffffffffffffffffffffffffffffffff167f56a53756e1db2ff35a90edee9bd205b4b2bb8633ee3d6a53a5e85d5b46f0e9dc60405160405180910390a250565b612b8e613716565b5f5f3373ffffffffffffffffffffffffffffffffffffffff1673ffffffffffffffffffffffffffffffffffffffff1681526020019081526020015f205f9054906101000a900460ff16612c1857336040517fdccef964000000000000000000000000000000000000000000000000000000008152600401612c0f919061472f565b60405180910390fd5b5f60025f8373ffffffffffffffffffffffffffffffffffffffff1673ffffffffffffffffffffffffffffffffffffffff1681526020019081526020015f205490505f8111612c9b576040517f08c379a0000000000000000000000000000000000000000000000000000000008152600401612c9290614f88565b60405180910390fd5b5f60025f8473ffffffffffffffffffffffffffffffffffffffff1673ffffffffffffffffffffffffffffffffffffffff1681526020019081526020015f20819055505f8273ffffffffffffffffffffffffffffffffffffffff1682604051612d0290614fd3565b5f6040518083038185875af1925050503d805f8114612d3c576040519150601f19603f3d011682016040523d82523d5f602084013e612d41565b606091505b5050905080612d85576040517f08c379a0000000000000000000000000000000000000000000000000000000008152600401612d7c90615031565b60405180910390fd5b5050612d8f613743565b50565b5f845111612dd5576040517f08c379a0000000000000000000000000000000000000000000000000000000008152600401612dcc90614b9e565b60405180910390fd5b5f835111612e18576040517f08c379a0000000000000000000000000000000000000000000000000000000008152600401612e0f90615099565b60405180910390fd5b5f825111612e5b576040517f08c379a0000000000000000000000000000000000000000000000000000000008152600401612e5290614c06565b60405180910390fd5b5f60015f3373ffffffffffffffffffffffffffffffffffffffff1673ffffffffffffffffffffffffffffffffffffffff1681526020019081526020015f205f815480929190612ea99061514c565b9190505590505f3382604051602001612ec39291906151f8565b6040516020818303038152906040528051906020012090506040518060c001604052808781526020018681526020013373ffffffffffffffffffffffffffffffffffffffff1681526020018581526020014281526020018481525060045f8381526020019081526020015f205f820151815f019081612f429190614dc4565b506020820151816001019081612f589190614dc4565b506040820151816002015f6101000a81548173ffffffffffffffffffffffffffffffffffffffff021916908373ffffffffffffffffffffffffffffffffffffffff1602179055506060820151816003019081612fb49190614dc4565b506080820151816004015560a082015181600501559050503360055f8381526020019081526020015f205f6101000a81548173ffffffffffffffffffffffffffffffffffffffff021916908373ffffffffffffffffffffffffffffffffffffffff160217905550807f4dd2fe37361f25794d48d66f93930b6fc8d9020eacef524c420ba04167260de88787338888604051613053959493929190615223565b60405180910390a2505050505050565b61306b6139fd565b5f73ffffffffffffffffffffffffffffffffffffffff168173ffffffffffffffffffffffffffffffffffffffff16036130db575f6040517f1e4fbdf70000000000000000000000000000000000000000000000000000000081526004016130d2919061472f565b60405180910390fd5b6130e481613a84565b50565b6130ef613716565b5f73ffffffffffffffffffffffffffffffffffffffff1660055f8381526020019081526020015f205f9054906101000a900473ffffffffffffffffffffffffffffffffffffffff1673ffffffffffffffffffffffffffffffffffffffff160361318d576040517f08c379a0000000000000000000000000000000000000000000000000000000008152600401613184906153c6565b60405180910390fd5b60065f8281526020019081526020015f205f3373ffffffffffffffffffffffffffffffffffffffff1673ffffffffffffffffffffffffffffffffffffffff1681526020019081526020015f205f9054906101000a900460ff1615613226576040517f08c379a000000000000000000000000000000000000000000000000000000000815260040161321d9061574e565b60405180910390fd5b60075f8281526020019081526020015f205f9054906101000a900460ff1615613284576040517f08c379a000000000000000000000000000000000000000000000000000000000815260040161327b90614b36565b60405180910390fd5b5f60045f8381526020019081526020015f206040518060c00160405290815f820180546132b0906149c6565b80601f01602080910402602001604051908101604052809291908181526020018280546132dc906149c6565b80156133275780601f106132fe57610100808354040283529160200191613327565b820191905f5260205f20905b81548152906001019060200180831161330a57829003601f168201915b50505050508152602001600182018054613340906149c6565b80601f016020809104026020016040519081016040528092919081815260200182805461336c906149c6565b80156133b75780601f1061338e576101008083540402835291602001916133b7565b820191905f5260205f20905b81548152906001019060200180831161339a57829003601f168201915b50505050508152602001600282015f9054906101000a900473ffffffffffffffffffffffffffffffffffffffff1673ffffffffffffffffffffffffffffffffffffffff1673ffffffffffffffffffffffffffffffffffffffff168152602001600382018054613425906149c6565b80601f0160208091040260200160405190810160405280929190818152602001828054613451906149c6565b801561349c5780601f106134735761010080835404028352916020019161349c565b820191905f5260205f20905b81548152906001019060200180831161347f57829003601f168201915b50505050508152602001600482015481526020016005820154815250509050348160a001511115613502576040517f08c379a00000000000000000000000000000000000000000000000000000000081526004016134f9906157b6565b60405180910390fd5b5f8160a00151346135139190615584565b90508160a0015160025f846040015173ffffffffffffffffffffffffffffffffffffffff1673ffffffffffffffffffffffffffffffffffffffff1681526020019081526020015f205f82825461356991906155b7565b925050819055508160a0015160035f8581526020019081526020015f205f82825461359491906155b7565b92505081905550600160065f8581526020019081526020015f205f3373ffffffffffffffffffffffffffffffffffffffff1673ffffffffffffffffffffffffffffffffffffffff1681526020019081526020015f205f6101000a81548160ff0219169083151502179055505f8111156136c5575f3373ffffffffffffffffffffffffffffffffffffffff168260405161362c90614fd3565b5f6040518083038185875af1925050503d805f8114613666576040519150601f19603f3d011682016040523d82523d5f602084013e61366b565b606091505b50509050806136c3573373ffffffffffffffffffffffffffffffffffffffff167faf73b0b217208b61be286bbc37095bce7eb8b9ccf617244c2f0f154e8e04e3ff836040516136ba919061448f565b60405180910390a25b505b3373ffffffffffffffffffffffffffffffffffffffff16837f5b452208b4e892b820b916ec0fc222b056ad975669fe6bc6d89d9588d4968d6660405160405180910390a35050613713613743565b50565b61371e613ba3565b613741600161373361372e613be4565b613c0d565b613c1690919063ffffffff16565b565b6137655f613757613752613be4565b613c0d565b613c1690919063ffffffff16565b565b7f000000000000000000000000000000000000000000000000000000000000000073ffffffffffffffffffffffffffffffffffffffff163073ffffffffffffffffffffffffffffffffffffffff16148061381457507f000000000000000000000000000000000000000000000000000000000000000073ffffffffffffffffffffffffffffffffffffffff166137fb613c1d565b73ffffffffffffffffffffffffffffffffffffffff1614155b1561384b576040517fe07c8dba00000000000000000000000000000000000000000000000000000000815260040160405180910390fd5b565b6138556139fd565b50565b8173ffffffffffffffffffffffffffffffffffffffff166352d1902d6040518163ffffffff1660e01b8152600401602060405180830381865afa9250505080156138c057506040513d601f19601f820116820180604052508101906138bd91906157e8565b60015b61390157816040517f4c9c8ce30000000000000000000000000000000000000000000000000000000081526004016138f8919061472f565b60405180910390fd5b7f360894a13ba1a3210667c828492db98dca3e2076cc3735a920a3ca505d382bbc5f1b811461396757806040517faa1d49a400000000000000000000000000000000000000000000000000000000815260040161395e9190614716565b60405180910390fd5b6139718383613c70565b505050565b7f000000000000000000000000000000000000000000000000000000000000000073ffffffffffffffffffffffffffffffffffffffff163073ffffffffffffffffffffffffffffffffffffffff16146139fb576040517fe07c8dba00000000000000000000000000000000000000000000000000000000815260040160405180910390fd5b565b613a05613ce2565b73ffffffffffffffffffffffffffffffffffffffff16613a23612230565b73ffffffffffffffffffffffffffffffffffffffff1614613a8257613a46613ce2565b6040517f118cdaa7000000000000000000000000000000000000000000000000000000008152600401613a79919061472f565b60405180910390fd5b565b5f613a8d613b7c565b90505f815f015f9054906101000a900473ffffffffffffffffffffffffffffffffffffffff16905082825f015f6101000a81548173ffffffffffffffffffffffffffffffffffffffff021916908373ffffffffffffffffffffffffffffffffffffffff1602179055508273ffffffffffffffffffffffffffffffffffffffff168173ffffffffffffffffffffffffffffffffffffffff167f8be0079c531659141344cd1fd0a4f28419497f9722a3daafe3b4186f6b6457e060405160405180910390a3505050565b5f5f613b5f613ce9565b90508091505090565b613b70613d12565b613b7981613d52565b50565b5f7f9016d09d72d40fdae2fd8ceac6b6234c7706214fd39c1cd1e609a0528c199300905090565b613bab613dd6565b15613be2576040517f3ee5aeb500000000000000000000000000000000000000000000000000000000815260040160405180910390fd5b565b5f7f9b779b17422d0df92223018b32b4d1fa46e071723d6817e2486d003becc55f005f1b905090565b5f819050919050565b80825d5050565b5f613c497f360894a13ba1a3210667c828492db98dca3e2076cc3735a920a3ca505d382bbc5f1b613df4565b5f015f9054906101000a900473ffffffffffffffffffffffffffffffffffffffff16905090565b613c7982613dfd565b8173ffffffffffffffffffffffffffffffffffffffff167fbc7cd75a20ee27fd9adebab32041f755214dbc6bffa90cc0225b39da2e5c2d3b60405160405180910390a25f81511115613cd557613ccf8282613ec6565b50613cde565b613cdd613fb7565b5b5050565b5f33905090565b5f7ff0c57e16840df040f15088dc2f81fe391c3923bec73e23a9662efc9c229c6a005f1b905090565b613d1a613ff3565b613d50576040517fd7e6bcf800000000000000000000000000000000000000000000000000000000815260040160405180910390fd5b565b613d5a613d12565b5f73ffffffffffffffffffffffffffffffffffffffff168173ffffffffffffffffffffffffffffffffffffffff1603613dca575f6040517f1e4fbdf7000000000000000000000000000000000000000000000000000000008152600401613dc1919061472f565b60405180910390fd5b613dd381613a84565b50565b5f613def613dea613de5613be4565b613c0d565b614011565b905090565b5f819050919050565b5f8173ffffffffffffffffffffffffffffffffffffffff163b03613e5857806040517f4c9c8ce3000000000000000000000000000000000000000000000000000000008152600401613e4f919061472f565b60405180910390fd5b80613e847f360894a13ba1a3210667c828492db98dca3e2076cc3735a920a3ca505d382bbc5f1b613df4565b5f015f6101000a81548173ffffffffffffffffffffffffffffffffffffffff021916908373ffffffffffffffffffffffffffffffffffffffff16021790555050565b60605f613ed3848461401b565b9050808015613f0957505f613ee661402f565b1180613f0857505f8473ffffffffffffffffffffffffffffffffffffffff163b115b5b15613f1e57613f16614036565b915050613fb1565b8015613f6157836040517f9996b315000000000000000000000000000000000000000000000000000000008152600401613f58919061472f565b60405180910390fd5b5f613f6a61402f565b1115613f7d57613f78614053565b613faf565b6040517fd6bda27500000000000000000000000000000000000000000000000000000000815260040160405180910390fd5b505b92915050565b5f341115613ff1576040517fb398979f00000000000000000000000000000000000000000000000000000000815260040160405180910390fd5b565b5f613ffc613b55565b5f0160089054906101000a900460ff16905090565b5f815c9050919050565b5f5f5f835160208501865af4905092915050565b5f3d905090565b606060405190503d81523d5f602083013e3d602001810160405290565b6040513d5f823e3d81fd5b50805461406a906149c6565b5f825580601f1061407b5750614098565b601f0160209004905f5260205f2090810190614097919061409b565b5b50565b5b808211156140b2575f815f90555060010161409c565b5090565b5f604051905090565b5f5ffd5b5f5ffd5b5f819050919050565b6140d9816140c7565b81146140e3575f5ffd5b50565b5f813590506140f4816140d0565b92915050565b5f6020828403121561410f5761410e6140bf565b5b5f61411c848285016140e6565b91505092915050565b5f81519050919050565b5f82825260208201905092915050565b8281835e5f83830152505050565b5f601f19601f8301169050919050565b5f61416782614125565b614171818561412f565b935061418181856020860161413f565b61418a8161414d565b840191505092915050565b5f73ffffffffffffffffffffffffffffffffffffffff82169050919050565b5f6141be82614195565b9050919050565b6141ce816141b4565b82525050565b5f819050919050565b6141e6816141d4565b82525050565b5f60c0820190508181035f830152614204818961415d565b90508181036020830152614218818861415d565b905061422760408301876141c5565b8181036060830152614239818661415d565b905061424860808301856141dd565b61425560a08301846141dd565b979650505050505050565b5f5ffd5b5f5ffd5b7f4e487b71000000000000000000000000000000000000000000000000000000005f52604160045260245ffd5b61429e8261414d565b810181811067ffffffffffffffff821117156142bd576142bc614268565b5b80604052505050565b5f6142cf6140b6565b90506142db8282614295565b919050565b5f67ffffffffffffffff8211156142fa576142f9614268565b5b6143038261414d565b9050602081019050919050565b828183375f83830152505050565b5f61433061432b846142e0565b6142c6565b90508281526020810184848401111561434c5761434b614264565b5b614357848285614310565b509392505050565b5f82601f83011261437357614372614260565b5b813561438384826020860161431e565b91505092915050565b614395816141d4565b811461439f575f5ffd5b50565b5f813590506143b08161438c565b92915050565b6143bf816141b4565b81146143c9575f5ffd5b50565b5f813590506143da816143b6565b92915050565b5f5f5f5f5f60a086880312156143f9576143f86140bf565b5b5f614406888289016140e6565b955050602086013567ffffffffffffffff811115614427576144266140c3565b5b6144338882890161435f565b945050604086013567ffffffffffffffff811115614454576144536140c3565b5b6144608882890161435f565b9350506060614471888289016143a2565b9250506080614482888289016143cc565b9150509295509295909350565b5f6020820190506144a25f8301846141dd565b92915050565b5f602082840312156144bd576144bc6140bf565b5b5f6144ca848285016143cc565b91505092915050565b5f8115159050919050565b6144e7816144d3565b82525050565b5f6020820190506145005f8301846144de565b92915050565b5f5f6040838503121561451c5761451b6140bf565b5b5f614529858286016140e6565b925050602061453a858286016143cc565b9150509250929050565b5f5f5f5f5f60a0868803121561455d5761455c6140bf565b5b5f86013567ffffffffffffffff81111561457a576145796140c3565b5b6145868882890161435f565b955050602086013567ffffffffffffffff8111156145a7576145a66140c3565b5b6145b38882890161435f565b945050604086013567ffffffffffffffff8111156145d4576145d36140c3565b5b6145e08882890161435f565b93505060606145f1888289016143a2565b9250506080614602888289016143cc565b9150509295509295909350565b5f67ffffffffffffffff82111561462957614628614268565b5b6146328261414d565b9050602081019050919050565b5f61465161464c8461460f565b6142c6565b90508281526020810184848401111561466d5761466c614264565b5b614678848285614310565b509392505050565b5f82601f83011261469457614693614260565b5b81356146a484826020860161463f565b91505092915050565b5f5f604083850312156146c3576146c26140bf565b5b5f6146d0858286016143cc565b925050602083013567ffffffffffffffff8111156146f1576146f06140c3565b5b6146fd85828601614680565b9150509250929050565b614710816140c7565b82525050565b5f6020820190506147295f830184614707565b92915050565b5f6020820190506147425f8301846141c5565b92915050565b5f6020820190508181035f830152614760818461415d565b905092915050565b5f5f5f5f5f5f60c08789031215614782576147816140bf565b5b5f87013567ffffffffffffffff81111561479f5761479e6140c3565b5b6147ab89828a0161435f565b965050602087013567ffffffffffffffff8111156147cc576147cb6140c3565b5b6147d889828a0161435f565b95505060406147e989828a016143cc565b945050606087013567ffffffffffffffff81111561480a576148096140c3565b5b61481689828a0161435f565b935050608061482789828a016143a2565b92505060a061483889828a016140e6565b9150509295509295509295565b5f5f5f5f6080858703121561485d5761485c6140bf565b5b5f61486a878288016140e6565b945050602085013567ffffffffffffffff81111561488b5761488a6140c3565b5b6148978782880161435f565b935050604085013567ffffffffffffffff8111156148b8576148b76140c3565b5b6148c48782880161435f565b92505060606148d5878288016143a2565b91505092959194509250565b5f5f5f5f608085870312156148f9576148f86140bf565b5b5f85013567ffffffffffffffff811115614916576149156140c3565b5b6149228782880161435f565b945050602085013567ffffffffffffffff811115614943576149426140c3565b5b61494f8782880161435f565b935050604085013567ffffffffffffffff8111156149705761496f6140c3565b5b61497c8782880161435f565b925050606061498d878288016143a2565b91505092959194509250565b7f4e487b71000000000000000000000000000000000000000000000000000000005f52602260045260245ffd5b5f60028204905060018216806149dd57607f821691505b6020821081036149f0576149ef614999565b5b50919050565b7f426f6f6b206f776e657220646f6573206e6f74206578697374000000000000005f82015250565b5f614a2a60198361412f565b9150614a35826149f6565b602082019050919050565b5f6020820190508181035f830152614a5781614a1e565b9050919050565b7f4f6e6c792074686520617574686f722063616e207570646174652074686520625f8201527f6f6f6b0000000000000000000000000000000000000000000000000000000000602082015250565b5f614ab860238361412f565b9150614ac382614a5e565b604082019050919050565b5f6020820190508181035f830152614ae581614aac565b9050919050565b7f426f6f6b2064656c6574656400000000000000000000000000000000000000005f82015250565b5f614b20600c8361412f565b9150614b2b82614aec565b602082019050919050565b5f6020820190508181035f830152614b4d81614b14565b9050919050565b7f5469746c652063616e6e6f7420626520656d70747900000000000000000000005f82015250565b5f614b8860158361412f565b9150614b9382614b54565b602082019050919050565b5f6020820190508181035f830152614bb581614b7c565b9050919050565b7f4950465320486173682063616e6e6f7420626520656d707479000000000000005f82015250565b5f614bf060198361412f565b9150614bfb82614bbc565b602082019050919050565b5f6020820190508181035f830152614c1d81614be4565b9050919050565b5f819050815f5260205f209050919050565b5f6020601f8301049050919050565b5f82821b905092915050565b5f60088302614c807fffffffffffffffffffffffffffffffffffffffffffffffffffffffffffffffff82614c45565b614c8a8683614c45565b95508019841693508086168417925050509392505050565b5f819050919050565b5f614cc5614cc0614cbb846141d4565b614ca2565b6141d4565b9050919050565b5f819050919050565b614cde83614cab565b614cf2614cea82614ccc565b848454614c51565b825550505050565b5f5f905090565b614d09614cfa565b614d14818484614cd5565b505050565b5b81811015614d3757614d2c5f82614d01565b600181019050614d1a565b5050565b601f821115614d7c57614d4d81614c24565b614d5684614c36565b81016020851015614d65578190505b614d79614d7185614c36565b830182614d19565b50505b505050565b5f82821c905092915050565b5f614d9c5f1984600802614d81565b1980831691505092915050565b5f614db48383614d8d565b9150826002028217905092915050565b614dcd82614125565b67ffffffffffffffff811115614de657614de5614268565b5b614df082546149c6565b614dfb828285614d3b565b5f60209050601f831160018114614e2c575f8415614e1a578287015190505b614e248582614da9565b865550614e8b565b601f198416614e3a86614c24565b5f5b82811015614e6157848901518255600182019150602085019450602081019050614e3c565b86831015614e7e5784890151614e7a601f891682614d8d565b8355505b6001600288020188555050505b505050505050565b5f6060820190508181035f830152614eab818661415d565b90508181036020830152614ebf818561415d565b9050614ece60408301846141dd565b949350505050565b7f4e6f742074686520617574686f720000000000000000000000000000000000005f82015250565b5f614f0a600e8361412f565b9150614f1582614ed6565b602082019050919050565b5f6020820190508181035f830152614f3781614efe565b9050919050565b7f4e6f2066756e647320746f2077697468647261770000000000000000000000005f82015250565b5f614f7260148361412f565b9150614f7d82614f3e565b602082019050919050565b5f6020820190508181035f830152614f9f81614f66565b9050919050565b5f81905092915050565b50565b5f614fbe5f83614fa6565b9150614fc982614fb0565b5f82019050919050565b5f614fdd82614fb3565b9150819050919050565b7f5472616e73666572206661696c656400000000000000000000000000000000005f82015250565b5f61501b600f8361412f565b915061502682614fe7565b602082019050919050565b5f6020820190508181035f8301526150488161500f565b9050919050565b7f417574686f722063616e6e6f7420626520656d707479000000000000000000005f82015250565b5f61508360168361412f565b915061508e8261504f565b602082019050919050565b5f6020820190508181035f8301526150b081615077565b9050919050565b7f417574686f722068617320746f206861766520616e20616464726573730000005f82015250565b5f6150eb601d8361412f565b91506150f6826150b7565b602082019050919050565b5f6020820190508181035f830152615118816150df565b9050919050565b7f4e487b71000000000000000000000000000000000000000000000000000000005f52601160045260245ffd5b5f615156826141d4565b91507fffffffffffffffffffffffffffffffffffffffffffffffffffffffffffffffff82036151885761518761511f565b5b600182019050919050565b5f8160601b9050919050565b5f6151a982615193565b9050919050565b5f6151ba8261519f565b9050919050565b6151d26151cd826141b4565b6151b0565b82525050565b5f819050919050565b6151f26151ed826141d4565b6151d8565b82525050565b5f61520382856151c1565b60148201915061521382846151e1565b6020820191508190509392505050565b5f60a0820190508181035f83015261523b818861415d565b9050818103602083015261524f818761415d565b905061525e60408301866141c5565b8181036060830152615270818561415d565b905061527f60808301846141dd565b9695505050505050565b7f4f6e6c7920617574686f7220697320617574686f72697a656420746f2064656c5f8201527f657465207468697320626f6f6b00000000000000000000000000000000000000602082015250565b5f6152e3602d8361412f565b91506152ee82615289565b604082019050919050565b5f6020820190508181035f830152615310816152d7565b9050919050565b5f819050919050565b5f67ffffffffffffffff82169050919050565b5f61534d61534861534384615317565b614ca2565b615320565b9050919050565b61535d81615333565b82525050565b5f6020820190506153765f830184615354565b92915050565b7f426f6f6b20646f6573206e6f74206578697374000000000000000000000000005f82015250565b5f6153b060138361412f565b91506153bb8261537c565b602082019050919050565b5f6020820190508181035f8301526153dd816153a4565b9050919050565b7f43616e6e6f74206769667420746f20796f757273656c660000000000000000005f82015250565b5f61541860178361412f565b9150615423826153e4565b602082019050919050565b5f6020820190508181035f8301526154458161540c565b9050919050565b7f496e76616c696420726563697069656e740000000000000000000000000000005f82015250565b5f61548060118361412f565b915061548b8261544c565b602082019050919050565b5f6020820190508181035f8301526154ad81615474565b9050919050565b7f526563697069656e7420616c7265616479206f776e73207468697320626f6f6b5f82015250565b5f6154e860208361412f565b91506154f3826154b4565b602082019050919050565b5f6020820190508181035f830152615515816154dc565b9050919050565b7f496e73756666696369656e742066756e647320746f20676966740000000000005f82015250565b5f615550601a8361412f565b915061555b8261551c565b602082019050919050565b5f6020820190508181035f83015261557d81615544565b9050919050565b5f61558e826141d4565b9150615599836141d4565b92508282039050818111156155b1576155b061511f565b5b92915050565b5f6155c1826141d4565b91506155cc836141d4565b92508282019050808211156155e4576155e361511f565b5b92915050565b5f81905092915050565b5f6155fe82614125565b61560881856155ea565b935061561881856020860161413f565b80840191505092915050565b5f61562f82886155f4565b915061563b82876155f4565b915061564782866155f4565b915061565382856151e1565b60208201915061566382846151e1565b6020820191508190509695505050505050565b7f4475706c696361746500000000000000000000000000000000000000000000005f82015250565b5f6156aa60098361412f565b91506156b582615676565b602082019050919050565b5f6020820190508181035f8301526156d78161569e565b9050919050565b7f426f6f6b20616c726561647920707572636861736564206279207468697320615f8201527f6464726573730000000000000000000000000000000000000000000000000000602082015250565b5f61573860268361412f565b9150615743826156de565b604082019050919050565b5f6020820190508181035f8301526157658161572c565b9050919050565b7f46756e647320746f6f206c6f77000000000000000000000000000000000000005f82015250565b5f6157a0600d8361412f565b91506157ab8261576c565b602082019050919050565b5f6020820190508181035f8301526157cd81615794565b9050919050565b5f815190506157e2816140d0565b92915050565b5f602082840312156157fd576157fc6140bf565b5b5f61580a848285016157d4565b9150509291505056fea26469706673582212209cb58284f94af892502d11ba2598723384ab82f40ce3153a94e1fd2f3752535c64736f6c634300081b0033",
  "linkReferences": {},
  "deployedLinkReferences": {}
}