{
  "_format": "hh-sol-artifact-1",
  "contractName": "PublishRegistryV1",
  "sourceName": "contracts/PublishRegistry.sol",
  "abi": [
    {
      "inputs": [
        {
          "internalType": "address",
          "name": "target",
          "type": "address"
        }
      ],
      "name": "AddressEmptyCode",
      "type": "error"
    },
    {
      "inputs": [
        {
          "internalType": "address",
          "name": "implementation",
          "type": "address"
        }
      ],
      "name": "ERC1967InvalidImplementation",
      "type": "error"
    },
    {
      "inputs": [],
      "name": "ERC1967NonPayable",
      "type": "error"
    },
    {
      "inputs": [],
      "name": "FailedCall",
      "type": "error"
    },
    {
      "inputs": [],
      "name": "InvalidInitialization",
      "type": "error"
    },
    {
      "inputs": [],
      "name": "NotInitializing",
      "type": "error"
    },
    {
      "inputs": [
        {
          "internalType": "address",
          "name": "owner",
          "type": "address"
        }
      ],
      "name": "OwnableInvalidOwner",
      "type": "error"
    },
    {
      "inputs": [
        {
          "internalType": "address",
          "name": "account",
          "type": "address"
        }
      ],
      "name": "OwnableUnauthorizedAccount",
      "type": "error"
    },
    {
      "inputs": [],
      "name": "ReentrancyGuardReentrantCall",
      "type": "error"
    },
    {
      "inputs": [],
      "name": "UUPSUnauthorizedCallContext",
      "type": "error"
    },
    {
      "inputs": [
        {
          "internalType": "bytes32",
          "name": "slot",
          "type": "bytes32"
        }
      ],
      "name": "UUPSUnsupportedProxiableUUID",
      "type": "error"
    },
    {
      "inputs": [
        {
          "internalType": "address",
          "name": "account",
          "type": "address"
        }
      ],
      "name": "UnauthorizedAccess",
      "type": "error"
    },
    {
      "anonymous": false,
      "inputs": [
        {
          "indexed": true,
          "internalType": "address",
          "name": "account",
          "type": "address"
        }
      ],
      "name": "AuthorizedAccountAdded",
      "type": "event"
    },
    {
      "anonymous": false,
      "inputs": [
        {
          "indexed": true,
          "internalType": "address",
          "name": "account",
          "type": "address"
        }
      ],
      "name": "AuthorizedAccountRemoved",
      "type": "event"
    },
    {
      "anonymous": false,
      "inputs": [
        {
          "indexed": true,
          "internalType": "bytes32",
          "name": "bookId",
          "type": "bytes32"
        }
      ],
      "name": "BookDeleted",
      "type": "event"
    },
    {
      "anonymous": false,
      "inputs": [
        {
          "indexed": true,
          "internalType": "bytes32",
          "name": "bookId",
          "type": "bytes32"
        },
        {
          "indexed": true,
          "internalType": "address",
          "name": "sender",
          "type": "address"
        },
        {
          "indexed": true,
          "internalType": "address",
          "name": "recipient",
          "type": "address"
        }
      ],
      "name": "BookGifted",
      "type": "event"
    },
    {
      "anonymous": false,
      "inputs": [
        {
          "indexed": true,
          "internalType": "bytes32",
          "name": "legacyBookId",
          "type": "bytes32"
        },
        {
          "indexed": true,
          "internalType": "bytes32",
          "name": "newBookId",
          "type": "bytes32"
        }
      ],
      "name": "BookMigrated",
      "type": "event"
    },
    {
      "anonymous": false,
      "inputs": [
        {
          "indexed": true,
          "internalType": "bytes32",
          "name": "bookId",
          "type": "bytes32"
        },
        {
          "indexed": true,
          "internalType": "address",
          "name": "buyer",
          "type": "address"
        }
      ],
      "name": "BookPurchased",
      "type": "event"
    },
    {
      "anonymous": false,
      "inputs": [
        {
          "indexed": true,
          "internalType": "bytes32",
          "name": "bookId",
          "type": "bytes32"
        },
        {
          "indexed": false,
          "internalType": "string",
          "name": "title",
          "type": "string"
        },
        {
          "indexed": false,
          "internalType": "string",
          "name": "author",
          "type": "string"
        },
        {
          "indexed": false,
          "internalType": "address",
          "name": "author_addr",
          "type": "address"
        },
        {
          "indexed": false,
          "internalType": "string",
          "name": "ipfsHash",
          "type": "string"
        },
        {
          "indexed": false,
          "internalType": "uint256",
          "name": "price",
          "type": "uint256"
        }
      ],
      "name": "BookRegistered",
      "type": "event"
    },
    {
      "anonymous": false,
      "inputs": [
        {
          "indexed": true,
          "internalType": "bytes32",
          "name": "bookId",
          "type": "bytes32"
        },
        {
          "indexed": false,
          "internalType": "string",
          "name": "newTitle",
          "type": "string"
        },
        {
          "indexed": false,
          "internalType": "string",
          "name": "newIpfsHash",
          "type": "string"
        },
        {
          "indexed": false,
          "internalType": "uint256",
          "name": "newPrice",
          "type": "uint256"
        }
      ],
      "name": "BookUpdated",
      "type": "event"
    },
    {
      "anonymous": false,
      "inputs": [
        {
          "indexed": false,
          "internalType": "uint64",
          "name": "version",
          "type": "uint64"
        }
      ],
      "name": "Initialized",
      "type": "event"
    },
    {
      "anonymous": false,
      "inputs": [
        {
          "indexed": true,
          "internalType": "address",
          "name": "previousOwner",
          "type": "address"
        },
        {
          "indexed": true,
          "internalType": "address",
          "name": "newOwner",
          "type": "address"
        }
      ],
      "name": "OwnershipTransferred",
      "type": "event"
    },
    {
      "anonymous": false,
      "inputs": [
        {
          "indexed": true,
          "internalType": "address",
          "name": "buyer",
          "type": "address"
        },
        {
          "indexed": false,
          "internalType": "uint256",
          "name": "amount",
          "type": "uint256"
        }
      ],
      "name": "RefundFailed",
      "type": "event"
    },
    {
      "anonymous": false,
      "inputs": [
        {
          "indexed": true,
          "internalType": "address",
          "name": "implementation",
          "type": "address"
        }
      ],
      "name": "Upgraded",
      "type": "event"
    },
    {
      "inputs": [],
      "name": "UPGRADE_INTERFACE_VERSION",
      "outputs": [
        {
          "internalType": "string",
          "name": "",
          "type": "string"
        }
      ],
      "stateMutability": "view",
      "type": "function"
    },
    {
      "inputs": [
        {
          "internalType": "address",
          "name": "account",
          "type": "address"
        }
      ],
      "name": "addAuthorizedAccount",
      "outputs": [],
      "stateMutability": "nonpayable",
      "type": "function"
    },
    {
      "inputs": [
        {
          "internalType": "address",
          "name": "",
          "type": "address"
        }
      ],
      "name": "authorNonces",
      "outputs": [
        {
          "internalType": "uint256",
          "name": "",
          "type": "uint256"
        }
      ],
      "stateMutability": "view",
      "type": "function"
    },
    {
      "inputs": [
        {
          "internalType": "address",
          "name": "",
          "type": "address"
        }
      ],
      "name": "authorizedAccounts",
      "outputs": [
        {
          "internalType": "bool",
          "name": "",
          "type": "bool"
        }
      ],
      "stateMutability": "view",
      "type": "function"
    },
    {
      "inputs": [
        {
          "internalType": "address",
          "name": "",
          "type": "address"
        }
      ],
      "name": "balances",
      "outputs": [
        {
          "internalType": "uint256",
          "name": "",
          "type": "uint256"
        }
      ],
      "stateMutability": "view",
      "type": "function"
    },
    {
      "inputs": [
        {
          "internalType": "bytes32",
          "name": "",
          "type": "bytes32"
        }
      ],
      "name": "bookEarnings",
      "outputs": [
        {
          "internalType": "uint256",
          "name": "",
          "type": "uint256"
        }
      ],
      "stateMutability": "view",
      "type": "function"
    },
    {
      "inputs": [
        {
          "internalType": "bytes32",
          "name": "",
          "type": "bytes32"
        }
      ],
      "name": "bookOwners",
      "outputs": [
        {
          "internalType": "address",
          "name": "",
          "type": "address"
        }
      ],
      "stateMutability": "view",
      "type": "function"
    },
    {
      "inputs": [
        {
          "internalType": "bytes32",
          "name": "",
          "type": "bytes32"
        }
      ],
      "name": "books",
      "outputs": [
        {
          "internalType": "string",
          "name": "title",
          "type": "string"
        },
        {
          "internalType": "string",
          "name": "author",
          "type": "string"
        },
        {
          "internalType": "address",
          "name": "author_addr",
          "type": "address"
        },
        {
          "internalType": "string",
          "name": "ipfsHash",
          "type": "string"
        },
        {
          "internalType": "uint256",
          "name": "timestamp",
          "type": "uint256"
        },
        {
          "internalType": "uint256",
          "name": "price",
          "type": "uint256"
        }
      ],
      "stateMutability": "view",
      "type": "function"
    },
    {
      "inputs": [
        {
          "internalType": "bytes32",
          "name": "_bookId",
          "type": "bytes32"
        },
        {
          "internalType": "address",
          "name": "user",
          "type": "address"
        }
      ],
      "name": "checkPurchaser",
      "outputs": [
        {
          "internalType": "bool",
          "name": "",
          "type": "bool"
        }
      ],
      "stateMutability": "view",
      "type": "function"
    },
    {
      "inputs": [
        {
          "internalType": "bytes32",
          "name": "_bookId",
          "type": "bytes32"
        }
      ],
      "name": "deleteBook",
      "outputs": [],
      "stateMutability": "nonpayable",
      "type": "function"
    },
    {
      "inputs": [
        {
          "internalType": "bytes32",
          "name": "_bookId",
          "type": "bytes32"
        },
        {
          "internalType": "address",
          "name": "author_addr",
          "type": "address"
        }
      ],
      "name": "deleteBookFor",
      "outputs": [],
      "stateMutability": "nonpayable",
      "type": "function"
    },
    {
      "inputs": [
        {
          "internalType": "bytes32",
          "name": "_bookId",
          "type": "bytes32"
        }
      ],
      "name": "getBook",
      "outputs": [
        {
          "internalType": "string",
          "name": "",
          "type": "string"
        },
        {
          "internalType": "string",
          "name": "",
          "type": "string"
        },
        {
          "internalType": "address",
          "name": "",
          "type": "address"
        },
        {
          "internalType": "string",
          "name": "",
          "type": "string"
        },
        {
          "internalType": "uint256",
          "name": "",
          "type": "uint256"
        },
        {
          "internalType": "uint256",
          "name": "",
          "type": "uint256"
        }
      ],
      "stateMutability": "view",
      "type": "function"
    },
    {
      "inputs": [
        {
          "internalType": "bytes32",
          "name": "_bookId",
          "type": "bytes32"
        }
      ],
      "name": "getBookEarnings",
      "outputs": [
        {
          "internalType": "uint256",
          "name": "",
          "type": "uint256"
        }
      ],
      "stateMutability": "view",
      "type": "function"
    },
    {
      "inputs": [
        {
          "internalType": "bytes32",
          "name": "_bookId",
          "type": "bytes32"
        },
        {
          "internalType": "address",
          "name": "recipient",
          "type": "address"
        }
      ],
      "name": "giftBook",
      "outputs": [],
      "stateMutability": "payable",
      "type": "function"
    },
    {
      "inputs": [],
      "name": "initialize",
      "outputs": [],
      "stateMutability": "nonpayable",
      "type": "function"
    },
    {
      "inputs": [
        {
          "internalType": "bytes32",
          "name": "",
          "type": "bytes32"
        }
      ],
      "name": "isDeleted",
      "outputs": [
        {
          "internalType": "bool",
          "name": "",
          "type": "bool"
        }
      ],
      "stateMutability": "view",
      "type": "function"
    },
    {
      "inputs": [
        {
          "internalType": "string",
          "name": "_title",
          "type": "string"
        },
        {
          "internalType": "string",
          "name": "_author",
          "type": "string"
        },
        {
          "internalType": "address",
          "name": "author_addr",
          "type": "address"
        },
        {
          "internalType": "string",
          "name": "_ipfsHash",
          "type": "string"
        },
        {
          "internalType": "uint256",
          "name": "_price",
          "type": "uint256"
        },
        {
          "internalType": "bytes32",
          "name": "legacyBookId",
          "type": "bytes32"
        }
      ],
      "name": "migrateBook",
      "outputs": [
        {
          "internalType": "bytes32",
          "name": "newBookId",
          "type": "bytes32"
        }
      ],
      "stateMutability": "nonpayable",
      "type": "function"
    },
    {
      "inputs": [],
      "name": "owner",
      "outputs": [
        {
          "internalType": "address",
          "name": "",
          "type": "address"
        }
      ],
      "stateMutability": "view",
      "type": "function"
    },
    {
      "inputs": [],
      "name": "proxiableUUID",
      "outputs": [
        {
          "internalType": "bytes32",
          "name": "",
          "type": "bytes32"
        }
      ],
      "stateMutability": "view",
      "type": "function"
    },
    {
      "inputs": [
        {
          "internalType": "string",
          "name": "_title",
          "type": "string"
        },
        {
          "internalType": "string",
          "name": "_author",
          "type": "string"
        },
        {
          "internalType": "string",
          "name": "_ipfsHash",
          "type": "string"
        },
        {
          "internalType": "uint256",
          "name": "_price",
          "type": "uint256"
        }
      ],
      "name": "publishBook",
      "outputs": [],
      "stateMutability": "nonpayable",
      "type": "function"
    },
    {
      "inputs": [
        {
          "internalType": "string",
          "name": "_title",
          "type": "string"
        },
        {
          "internalType": "string",
          "name": "_author",
          "type": "string"
        },
        {
          "internalType": "string",
          "name": "_ipfsHash",
          "type": "string"
        },
        {
          "internalType": "uint256",
          "name": "_price",
          "type": "uint256"
        },
        {
          "internalType": "address",
          "name": "author_addr",
          "type": "address"
        }
      ],
      "name": "publishBookFor",
      "outputs": [],
      "stateMutability": "nonpayable",
      "type": "function"
    },
    {
      "inputs": [
        {
          "internalType": "bytes32",
          "name": "_bookId",
          "type": "bytes32"
        }
      ],
      "name": "purchaseBook",
      "outputs": [],
      "stateMutability": "payable",
      "type": "function"
    },
    {
      "inputs": [
        {
          "internalType": "bytes32",
          "name": "",
          "type": "bytes32"
        },
        {
          "internalType": "address",
          "name": "",
          "type": "address"
        }
      ],
      "name": "purchasers",
      "outputs": [
        {
          "internalType": "bool",
          "name": "",
          "type": "bool"
        }
      ],
      "stateMutability": "view",
      "type": "function"
    },
    {
      "inputs": [
        {
          "internalType": "address",
          "name": "account",
          "type": "address"
        }
      ],
      "name": "removeAuthorizedAccount",
      "outputs": [],
      "stateMutability": "nonpayable",
      "type": "function"
    },
    {
      "inputs": [],
      "name": "renounceOwnership",
      "outputs": [],
      "stateMutability": "nonpayable",
      "type": "function"
    },
    {
      "inputs": [
        {
          "internalType": "address",
          "name": "newOwner",
          "type": "address"
        }
      ],
      "name": "transferOwnership",
      "outputs": [],
      "stateMutability": "nonpayable",
      "type": "function"
    },
    {
      "inputs": [
        {
          "internalType": "bytes32",
          "name": "_bookId",
          "type": "bytes32"
        },
        {
          "internalType": "string",
          "name": "_newTitle",
          "type": "string"
        },
        {
          "internalType": "string",
          "name": "_newIpfsHash",
          "type": "string"
        },
        {
          "internalType": "uint256",
          "name": "_newPrice",
          "type": "uint256"
        }
      ],
      "name": "updateBookInfo",
      "outputs": [],
      "stateMutability": "nonpayable",
      "type": "function"
    },
    {
      "inputs": [
        {
          "internalType": "bytes32",
          "name": "_bookId",
          "type": "bytes32"
        },
        {
          "internalType": "string",
          "name": "_newTitle",
          "type": "string"
        },
        {
          "internalType": "string",
          "name": "_newIpfsHash",
          "type": "string"
        },
        {
          "internalType": "uint256",
          "name": "_newPrice",
          "type": "uint256"
        },
        {
          "internalType": "address",
          "name": "author_addr",
          "type": "address"
        }
      ],
      "name": "updateBookInfoFor",
      "outputs": [],
      "stateMutability": "nonpayable",
      "type": "function"
    },
    {
      "inputs": [
        {
          "internalType": "address",
          "name": "newImplementation",
          "type": "address"
        },
        {
          "internalType": "bytes",
          "name": "data",
          "type": "bytes"
        }
      ],
      "name": "upgradeToAndCall",
      "outputs": [],
      "stateMutability": "payable",
      "type": "function"
    },
    {
      "inputs": [],
      "name": "withdrawFunds",
      "outputs": [],
      "stateMutability": "nonpayable",
      "type": "function"
    },
    {
      "inputs": [
        {
          "internalType": "address",
          "name": "author_addr",
          "type": "address"
        }
      ],
      "name": "withdrawFundsFor",
      "outputs": [],
      "stateMutability": "nonpayable",
      "type": "function"
    }
  ],
  "bytecode": "0x60a06040523073ffffffffffffffffffffffffffffffffffffffff1660809073ffffffffffffffffffffffffffffffffffffffff16815250348015604257600080fd5b50608051615c2361006c60003960008181613a0e01528181613a630152613c1e0152615c236000f3fe6080604052600436106101d85760003560e01c8063715018a611610102578063ad3cb1cc11610095578063c02e72ca11610064578063c02e72ca146106e0578063dfbe758c14610709578063f2fde38b14610732578063f547ec671461075b576101d8565b8063ad3cb1cc14610626578063af583ae314610651578063b235730b1461068e578063be47aa09146106b7576101d8565b80638833054d116100d15780638833054d146105745780638da5cb5b14610590578063a924c043146105bb578063ad1a7d0c146105e4576101d8565b8063715018a6146104cc578063801ba24e146104e35780638129fc1c1461052057806384973eb314610537576101d8565b80633f2b9bb31161017a57806363dcd5991161014957806363dcd59914610400578063678233251461042957806367995373146104665780636ee012fc1461048f576101d8565b80633f2b9bb3146103535780634a3c96a4146103905780634f1ef286146103b957806352d1902d146103d5576101d8565b806324600fc3116101b657806324600fc31461028557806324ba58841461029c57806327e235e3146102d957806338a00a8014610316576101d8565b80630c0dee70146101dd5780630ca8f5391461021f578063124fca3714610248575b600080fd5b3480156101e957600080fd5b5061020460048036038101906101ff91906143ab565b610777565b604051610216969594939291906144c2565b60405180910390f35b34801561022b57600080fd5b50610246600480360381019061024191906146c5565b61096b565b005b34801561025457600080fd5b5061026f600480360381019061026a91906143ab565b610cac565b60405161027c9190614778565b60405180910390f35b34801561029157600080fd5b5061029a610d6a565b005b3480156102a857600080fd5b506102c360048036038101906102be9190614793565b610ef6565b6040516102d091906147db565b60405180910390f35b3480156102e557600080fd5b5061030060048036038101906102fb9190614793565b610f16565b60405161030d9190614778565b60405180910390f35b34801561032257600080fd5b5061033d600480360381019061033891906147f6565b610f2e565b60405161034a91906147db565b60405180910390f35b34801561035f57600080fd5b5061037a60048036038101906103759190614793565b610f5d565b6040516103879190614778565b60405180910390f35b34801561039c57600080fd5b506103b760048036038101906103b29190614836565b610f75565b005b6103d360048036038101906103ce91906149a6565b611353565b005b3480156103e157600080fd5b506103ea611372565b6040516103f79190614a11565b60405180910390f35b34801561040c57600080fd5b50610427600480360381019061042291906143ab565b6113a5565b005b34801561043557600080fd5b50610450600480360381019061044b91906143ab565b6115f7565b60405161045d91906147db565b60405180910390f35b34801561047257600080fd5b5061048d600480360381019061048891906147f6565b611617565b005b34801561049b57600080fd5b506104b660048036038101906104b191906143ab565b6118f7565b6040516104c39190614a2c565b60405180910390f35b3480156104d857600080fd5b506104e161192a565b005b3480156104ef57600080fd5b5061050a600480360381019061050591906143ab565b61193e565b6040516105179190614778565b60405180910390f35b34801561052c57600080fd5b50610535611956565b005b34801561054357600080fd5b5061055e600480360381019061055991906147f6565b611b4b565b60405161056b91906147db565b60405180910390f35b61058e600480360381019061058991906147f6565b611be3565b005b34801561059c57600080fd5b506105a561232f565b6040516105b29190614a2c565b60405180910390f35b3480156105c757600080fd5b506105e260048036038101906105dd9190614793565b612367565b005b3480156105f057600080fd5b5061060b600480360381019061060691906143ab565b612491565b60405161061d969594939291906144c2565b60405180910390f35b34801561063257600080fd5b5061063b612711565b6040516106489190614a47565b60405180910390f35b34801561065d57600080fd5b5061067860048036038101906106739190614a69565b61274a565b6040516106859190614a11565b60405180910390f35b34801561069a57600080fd5b506106b560048036038101906106b09190614b4a565b6129e7565b005b3480156106c357600080fd5b506106de60048036038101906106d99190614793565b612c9a565b005b3480156106ec57600080fd5b5061070760048036038101906107029190614793565b612dc4565b005b34801561071557600080fd5b50610730600480360381019061072b9190614be9565b612fde565b005b34801561073e57600080fd5b5061075960048036038101906107549190614793565b6132bf565b005b610775600480360381019061077091906143ab565b613345565b005b600460205280600052604060002060009150905080600001805461079a90614cd3565b80601f01602080910402602001604051908101604052809291908181526020018280546107c690614cd3565b80156108135780601f106107e857610100808354040283529160200191610813565b820191906000526020600020905b8154815290600101906020018083116107f657829003601f168201915b50505050509080600101805461082890614cd3565b80601f016020809104026020016040519081016040528092919081815260200182805461085490614cd3565b80156108a15780601f10610876576101008083540402835291602001916108a1565b820191906000526020600020905b81548152906001019060200180831161088457829003601f168201915b5050505050908060020160009054906101000a900473ffffffffffffffffffffffffffffffffffffffff16908060030180546108dc90614cd3565b80601f016020809104026020016040519081016040528092919081815260200182805461090890614cd3565b80156109555780601f1061092a57610100808354040283529160200191610955565b820191906000526020600020905b81548152906001019060200180831161093857829003601f168201915b5050505050908060040154908060050154905086565b6000803373ffffffffffffffffffffffffffffffffffffffff1673ffffffffffffffffffffffffffffffffffffffff16815260200190815260200160002060009054906101000a900460ff166109f857336040517fdccef9640000000000000000000000000000000000000000000000000000000081526004016109ef9190614a2c565b60405180910390fd5b600073ffffffffffffffffffffffffffffffffffffffff166005600087815260200190815260200160002060009054906101000a900473ffffffffffffffffffffffffffffffffffffffff1673ffffffffffffffffffffffffffffffffffffffff1603610a9a576040517f08c379a0000000000000000000000000000000000000000000000000000000008152600401610a9190614d50565b60405180910390fd5b8073ffffffffffffffffffffffffffffffffffffffff166005600087815260200190815260200160002060009054906101000a900473ffffffffffffffffffffffffffffffffffffffff1673ffffffffffffffffffffffffffffffffffffffff1614610b3b576040517f08c379a0000000000000000000000000000000000000000000000000000000008152600401610b3290614de2565b60405180910390fd5b6007600086815260200190815260200160002060009054906101000a900460ff1615610b9c576040517f08c379a0000000000000000000000000000000000000000000000000000000008152600401610b9390614e4e565b60405180910390fd5b6000845111610be0576040517f08c379a0000000000000000000000000000000000000000000000000000000008152600401610bd790614eba565b60405180910390fd5b6000835111610c24576040517f08c379a0000000000000000000000000000000000000000000000000000000008152600401610c1b90614f26565b60405180910390fd5b600060046000878152602001908152602001600020905084816000019081610c4c91906150f2565b5083816003019081610c5e91906150f2565b50828160050181905550857f77287690d8485408dc856625ef25e33167e4a0bddc3fc797d70043c702174da1868686604051610c9c939291906151c4565b60405180910390a2505050505050565b60003373ffffffffffffffffffffffffffffffffffffffff166005600084815260200190815260200160002060009054906101000a900473ffffffffffffffffffffffffffffffffffffffff1673ffffffffffffffffffffffffffffffffffffffff1614610d4f576040517f08c379a0000000000000000000000000000000000000000000000000000000008152600401610d4690615255565b60405180910390fd5b60036000838152602001908152602001600020549050919050565b610d7261399c565b6000600260003373ffffffffffffffffffffffffffffffffffffffff1673ffffffffffffffffffffffffffffffffffffffff16815260200190815260200160002054905060008111610df9576040517f08c379a0000000000000000000000000000000000000000000000000000000008152600401610df0906152c1565b60405180910390fd5b6000600260003373ffffffffffffffffffffffffffffffffffffffff1673ffffffffffffffffffffffffffffffffffffffff1681526020019081526020016000208190555060003373ffffffffffffffffffffffffffffffffffffffff1682604051610e6490615312565b60006040518083038185875af1925050503d8060008114610ea1576040519150601f19603f3d011682016040523d82523d6000602084013e610ea6565b606091505b5050905080610eea576040517f08c379a0000000000000000000000000000000000000000000000000000000008152600401610ee190615373565b60405180910390fd5b5050610ef46139f3565b565b60006020528060005260406000206000915054906101000a900460ff1681565b60026020528060005260406000206000915090505481565b60066020528160005260406000206020528060005260406000206000915091509054906101000a900460ff1681565b60016020528060005260406000206000915090505481565b6000803373ffffffffffffffffffffffffffffffffffffffff1673ffffffffffffffffffffffffffffffffffffffff16815260200190815260200160002060009054906101000a900460ff1661100257336040517fdccef964000000000000000000000000000000000000000000000000000000008152600401610ff99190614a2c565b60405180910390fd5b6000855111611046576040517f08c379a000000000000000000000000000000000000000000000000000000000815260040161103d90614eba565b60405180910390fd5b600084511161108a576040517f08c379a0000000000000000000000000000000000000000000000000000000008152600401611081906153df565b60405180910390fd5b60008351116110ce576040517f08c379a00000000000000000000000000000000000000000000000000000000081526004016110c590614f26565b60405180910390fd5b600073ffffffffffffffffffffffffffffffffffffffff168173ffffffffffffffffffffffffffffffffffffffff160361113d576040517f08c379a00000000000000000000000000000000000000000000000000000000081526004016111349061544b565b60405180910390fd5b6000600160008373ffffffffffffffffffffffffffffffffffffffff1673ffffffffffffffffffffffffffffffffffffffff168152602001908152602001600020600081548092919061118f9061549a565b919050559050600082826040516020016111aa92919061554b565b6040516020818303038152906040528051906020012090506040518060c001604052808881526020018781526020018473ffffffffffffffffffffffffffffffffffffffff1681526020018681526020014281526020018581525060046000838152602001908152602001600020600082015181600001908161122d91906150f2565b50602082015181600101908161124391906150f2565b5060408201518160020160006101000a81548173ffffffffffffffffffffffffffffffffffffffff021916908373ffffffffffffffffffffffffffffffffffffffff16021790555060608201518160030190816112a091906150f2565b506080820151816004015560a08201518160050155905050826005600083815260200190815260200160002060006101000a81548173ffffffffffffffffffffffffffffffffffffffff021916908373ffffffffffffffffffffffffffffffffffffffff160217905550807f4dd2fe37361f25794d48d66f93930b6fc8d9020eacef524c420ba04167260de88888868989604051611342959493929190615577565b60405180910390a250505050505050565b61135b613a0c565b61136482613af2565b61136e8282613afd565b5050565b600061137c613c1c565b7f360894a13ba1a3210667c828492db98dca3e2076cc3735a920a3ca505d382bbc60001b905090565b600073ffffffffffffffffffffffffffffffffffffffff166005600083815260200190815260200160002060009054906101000a900473ffffffffffffffffffffffffffffffffffffffff1673ffffffffffffffffffffffffffffffffffffffff1603611447576040517f08c379a000000000000000000000000000000000000000000000000000000000815260040161143e90614d50565b60405180910390fd5b3373ffffffffffffffffffffffffffffffffffffffff166005600083815260200190815260200160002060009054906101000a900473ffffffffffffffffffffffffffffffffffffffff1673ffffffffffffffffffffffffffffffffffffffff16146114e8576040517f08c379a00000000000000000000000000000000000000000000000000000000081526004016114df90615651565b60405180910390fd5b600460008281526020019081526020016000206000808201600061150c9190614304565b60018201600061151c9190614304565b6002820160006101000a81549073ffffffffffffffffffffffffffffffffffffffff02191690556003820160006115539190614304565b6004820160009055600582016000905550506005600082815260200190815260200160002060006101000a81549073ffffffffffffffffffffffffffffffffffffffff021916905560016007600083815260200190815260200160002060006101000a81548160ff021916908315150217905550807fd97585d48763a5b0690d4768bcb0bd3d7ee80a63f48f23a25532076dcb6bc15660405160405180910390a250565b60076020528060005260406000206000915054906101000a900460ff1681565b6000803373ffffffffffffffffffffffffffffffffffffffff1673ffffffffffffffffffffffffffffffffffffffff16815260200190815260200160002060009054906101000a900460ff166116a457336040517fdccef96400000000000000000000000000000000000000000000000000000000815260040161169b9190614a2c565b60405180910390fd5b600073ffffffffffffffffffffffffffffffffffffffff166005600084815260200190815260200160002060009054906101000a900473ffffffffffffffffffffffffffffffffffffffff1673ffffffffffffffffffffffffffffffffffffffff1603611746576040517f08c379a000000000000000000000000000000000000000000000000000000000815260040161173d90614d50565b60405180910390fd5b8073ffffffffffffffffffffffffffffffffffffffff166005600084815260200190815260200160002060009054906101000a900473ffffffffffffffffffffffffffffffffffffffff1673ffffffffffffffffffffffffffffffffffffffff16146117e7576040517f08c379a00000000000000000000000000000000000000000000000000000000081526004016117de90615651565b60405180910390fd5b600460008381526020019081526020016000206000808201600061180b9190614304565b60018201600061181b9190614304565b6002820160006101000a81549073ffffffffffffffffffffffffffffffffffffffff02191690556003820160006118529190614304565b6004820160009055600582016000905550506005600083815260200190815260200160002060006101000a81549073ffffffffffffffffffffffffffffffffffffffff021916905560016007600084815260200190815260200160002060006101000a81548160ff021916908315150217905550817fd97585d48763a5b0690d4768bcb0bd3d7ee80a63f48f23a25532076dcb6bc15660405160405180910390a25050565b60056020528060005260406000206000915054906101000a900473ffffffffffffffffffffffffffffffffffffffff1681565b611932613ca3565b61193c6000613d2a565b565b60036020528060005260406000206000915090505481565b6000611960613e01565b905060008160000160089054906101000a900460ff1615905060008260000160009054906101000a900467ffffffffffffffff1690506000808267ffffffffffffffff161480156119ae5750825b9050600060018367ffffffffffffffff161480156119e3575060003073ffffffffffffffffffffffffffffffffffffffff163b145b9050811580156119f1575080155b15611a28576040517ff92ee8a900000000000000000000000000000000000000000000000000000000815260040160405180910390fd5b60018560000160006101000a81548167ffffffffffffffff021916908367ffffffffffffffff1602179055508315611a785760018560000160086101000a81548160ff0219169083151502179055505b611a80613e15565b611a8933613e1f565b611a91613e33565b60016000803373ffffffffffffffffffffffffffffffffffffffff1673ffffffffffffffffffffffffffffffffffffffff16815260200190815260200160002060006101000a81548160ff0219169083151502179055508315611b445760008560000160086101000a81548160ff0219169083151502179055507fc7f505b2f371ae2175ee4913f4499e1f2633a7b5936321eed1cdaeb6115181d26001604051611b3b91906156c0565b60405180910390a15b5050505050565b60006007600084815260200190815260200160002060009054906101000a900460ff1615611b7c5760009050611bdd565b6006600084815260200190815260200160002060008373ffffffffffffffffffffffffffffffffffffffff1673ffffffffffffffffffffffffffffffffffffffff16815260200190815260200160002060009054906101000a900460ff1690505b92915050565b611beb61399c565b600073ffffffffffffffffffffffffffffffffffffffff166005600084815260200190815260200160002060009054906101000a900473ffffffffffffffffffffffffffffffffffffffff1673ffffffffffffffffffffffffffffffffffffffff1603611c8d576040517f08c379a0000000000000000000000000000000000000000000000000000000008152600401611c8490615727565b60405180910390fd5b3373ffffffffffffffffffffffffffffffffffffffff168173ffffffffffffffffffffffffffffffffffffffff1603611cfb576040517f08c379a0000000000000000000000000000000000000000000000000000000008152600401611cf290615793565b60405180910390fd5b600073ffffffffffffffffffffffffffffffffffffffff168173ffffffffffffffffffffffffffffffffffffffff1603611d6a576040517f08c379a0000000000000000000000000000000000000000000000000000000008152600401611d61906157ff565b60405180910390fd5b6006600083815260200190815260200160002060008273ffffffffffffffffffffffffffffffffffffffff1673ffffffffffffffffffffffffffffffffffffffff16815260200190815260200160002060009054906101000a900460ff1615611e08576040517f08c379a0000000000000000000000000000000000000000000000000000000008152600401611dff9061586b565b60405180910390fd5b6007600083815260200190815260200160002060009054906101000a900460ff1615611e69576040517f08c379a0000000000000000000000000000000000000000000000000000000008152600401611e6090614e4e565b60405180910390fd5b6000600460008481526020019081526020016000206040518060c0016040529081600082018054611e9990614cd3565b80601f0160208091040260200160405190810160405280929190818152602001828054611ec590614cd3565b8015611f125780601f10611ee757610100808354040283529160200191611f12565b820191906000526020600020905b815481529060010190602001808311611ef557829003601f168201915b50505050508152602001600182018054611f2b90614cd3565b80601f0160208091040260200160405190810160405280929190818152602001828054611f5790614cd3565b8015611fa45780601f10611f7957610100808354040283529160200191611fa4565b820191906000526020600020905b815481529060010190602001808311611f8757829003601f168201915b505050505081526020016002820160009054906101000a900473ffffffffffffffffffffffffffffffffffffffff1673ffffffffffffffffffffffffffffffffffffffff1673ffffffffffffffffffffffffffffffffffffffff16815260200160038201805461201390614cd3565b80601f016020809104026020016040519081016040528092919081815260200182805461203f90614cd3565b801561208c5780601f106120615761010080835404028352916020019161208c565b820191906000526020600020905b81548152906001019060200180831161206f57829003601f168201915b505050505081526020016004820154815260200160058201548152505090508060a001513410156120f2576040517f08c379a00000000000000000000000000000000000000000000000000000000081526004016120e9906158d7565b60405180910390fd5b60008160a001513461210491906158f7565b90508160a0015160026000846040015173ffffffffffffffffffffffffffffffffffffffff1673ffffffffffffffffffffffffffffffffffffffff168152602001908152602001600020600082825461215d919061592b565b925050819055508160a0015160036000868152602001908152602001600020600082825461218b919061592b565b9250508190555060016006600086815260200190815260200160002060008573ffffffffffffffffffffffffffffffffffffffff1673ffffffffffffffffffffffffffffffffffffffff16815260200190815260200160002060006101000a81548160ff02191690831515021790555060008111156122c65760003373ffffffffffffffffffffffffffffffffffffffff168260405161222a90615312565b60006040518083038185875af1925050503d8060008114612267576040519150601f19603f3d011682016040523d82523d6000602084013e61226c565b606091505b50509050806122c4573373ffffffffffffffffffffffffffffffffffffffff167faf73b0b217208b61be286bbc37095bce7eb8b9ccf617244c2f0f154e8e04e3ff836040516122bb9190614778565b60405180910390a25b505b8273ffffffffffffffffffffffffffffffffffffffff163373ffffffffffffffffffffffffffffffffffffffff16857f5267a11f673252311c3edb7753b87eefd26429cae75d2912658361ca5fa1736f60405160405180910390a4505061232b6139f3565b5050565b60008061233a613e45565b90508060000160009054906101000a900473ffffffffffffffffffffffffffffffffffffffff1691505090565b6000803373ffffffffffffffffffffffffffffffffffffffff1673ffffffffffffffffffffffffffffffffffffffff16815260200190815260200160002060009054906101000a900460ff166123f457336040517fdccef9640000000000000000000000000000000000000000000000000000000081526004016123eb9190614a2c565b60405180910390fd5b60016000808373ffffffffffffffffffffffffffffffffffffffff1673ffffffffffffffffffffffffffffffffffffffff16815260200190815260200160002060006101000a81548160ff0219169083151502179055508073ffffffffffffffffffffffffffffffffffffffff167f5d4494741d465e91754a74831c82925e4f848bc6c191d4324527b5a1e9628ed460405160405180910390a250565b606080600060606000806000600460008981526020019081526020016000206040518060c00160405290816000820180546124cb90614cd3565b80601f01602080910402602001604051908101604052809291908181526020018280546124f790614cd3565b80156125445780601f1061251957610100808354040283529160200191612544565b820191906000526020600020905b81548152906001019060200180831161252757829003601f168201915b5050505050815260200160018201805461255d90614cd3565b80601f016020809104026020016040519081016040528092919081815260200182805461258990614cd3565b80156125d65780601f106125ab576101008083540402835291602001916125d6565b820191906000526020600020905b8154815290600101906020018083116125b957829003601f168201915b505050505081526020016002820160009054906101000a900473ffffffffffffffffffffffffffffffffffffffff1673ffffffffffffffffffffffffffffffffffffffff1673ffffffffffffffffffffffffffffffffffffffff16815260200160038201805461264590614cd3565b80601f016020809104026020016040519081016040528092919081815260200182805461267190614cd3565b80156126be5780601f10612693576101008083540402835291602001916126be565b820191906000526020600020905b8154815290600101906020018083116126a157829003601f168201915b50505050508152602001600482015481526020016005820154815250509050806000015181602001518260400151836060015184608001518560a001519650965096509650965096505091939550919395565b6040518060400160405280600581526020017f352e302e3000000000000000000000000000000000000000000000000000000081525081565b6000612754613ca3565b868685854260405160200161276d95949392919061599b565b604051602081830303815290604052805190602001209050600073ffffffffffffffffffffffffffffffffffffffff166005600083815260200190815260200160002060009054906101000a900473ffffffffffffffffffffffffffffffffffffffff1673ffffffffffffffffffffffffffffffffffffffff1614612827576040517f08c379a000000000000000000000000000000000000000000000000000000000815260040161281e90615a3a565b60405180910390fd5b6040518060c001604052808881526020018781526020018673ffffffffffffffffffffffffffffffffffffffff1681526020018581526020014281526020018481525060046000838152602001908152602001600020600082015181600001908161289291906150f2565b5060208201518160010190816128a891906150f2565b5060408201518160020160006101000a81548173ffffffffffffffffffffffffffffffffffffffff021916908373ffffffffffffffffffffffffffffffffffffffff160217905550606082015181600301908161290591906150f2565b506080820151816004015560a08201518160050155905050846005600083815260200190815260200160002060006101000a81548173ffffffffffffffffffffffffffffffffffffffff021916908373ffffffffffffffffffffffffffffffffffffffff160217905550807f4dd2fe37361f25794d48d66f93930b6fc8d9020eacef524c420ba04167260de888888888886040516129a7959493929190615577565b60405180910390a280827fd3999821baac11cccf884089ac4e908d56c75ea30782191c54b357a63149d6d460405160405180910390a39695505050505050565b600073ffffffffffffffffffffffffffffffffffffffff166005600086815260200190815260200160002060009054906101000a900473ffffffffffffffffffffffffffffffffffffffff1673ffffffffffffffffffffffffffffffffffffffff1603612a89576040517f08c379a0000000000000000000000000000000000000000000000000000000008152600401612a8090614d50565b60405180910390fd5b3373ffffffffffffffffffffffffffffffffffffffff166005600086815260200190815260200160002060009054906101000a900473ffffffffffffffffffffffffffffffffffffffff1673ffffffffffffffffffffffffffffffffffffffff1614612b2a576040517f08c379a0000000000000000000000000000000000000000000000000000000008152600401612b2190614de2565b60405180910390fd5b6007600085815260200190815260200160002060009054906101000a900460ff1615612b8b576040517f08c379a0000000000000000000000000000000000000000000000000000000008152600401612b8290614e4e565b60405180910390fd5b6000835111612bcf576040517f08c379a0000000000000000000000000000000000000000000000000000000008152600401612bc690614eba565b60405180910390fd5b6000825111612c13576040517f08c379a0000000000000000000000000000000000000000000000000000000008152600401612c0a90614f26565b60405180910390fd5b600060046000868152602001908152602001600020905083816000019081612c3b91906150f2565b5082816003019081612c4d91906150f2565b50818160050181905550847f77287690d8485408dc856625ef25e33167e4a0bddc3fc797d70043c702174da1858585604051612c8b939291906151c4565b60405180910390a25050505050565b6000803373ffffffffffffffffffffffffffffffffffffffff1673ffffffffffffffffffffffffffffffffffffffff16815260200190815260200160002060009054906101000a900460ff16612d2757336040517fdccef964000000000000000000000000000000000000000000000000000000008152600401612d1e9190614a2c565b60405180910390fd5b60008060008373ffffffffffffffffffffffffffffffffffffffff1673ffffffffffffffffffffffffffffffffffffffff16815260200190815260200160002060006101000a81548160ff0219169083151502179055508073ffffffffffffffffffffffffffffffffffffffff167f56a53756e1db2ff35a90edee9bd205b4b2bb8633ee3d6a53a5e85d5b46f0e9dc60405160405180910390a250565b612dcc61399c565b6000803373ffffffffffffffffffffffffffffffffffffffff1673ffffffffffffffffffffffffffffffffffffffff16815260200190815260200160002060009054906101000a900460ff16612e5957336040517fdccef964000000000000000000000000000000000000000000000000000000008152600401612e509190614a2c565b60405180910390fd5b6000600260008373ffffffffffffffffffffffffffffffffffffffff1673ffffffffffffffffffffffffffffffffffffffff16815260200190815260200160002054905060008111612ee0576040517f08c379a0000000000000000000000000000000000000000000000000000000008152600401612ed7906152c1565b60405180910390fd5b6000600260008473ffffffffffffffffffffffffffffffffffffffff1673ffffffffffffffffffffffffffffffffffffffff1681526020019081526020016000208190555060008273ffffffffffffffffffffffffffffffffffffffff1682604051612f4b90615312565b60006040518083038185875af1925050503d8060008114612f88576040519150601f19603f3d011682016040523d82523d6000602084013e612f8d565b606091505b5050905080612fd1576040517f08c379a0000000000000000000000000000000000000000000000000000000008152600401612fc890615373565b60405180910390fd5b5050612fdb6139f3565b50565b6000845111613022576040517f08c379a000000000000000000000000000000000000000000000000000000000815260040161301990614eba565b60405180910390fd5b6000835111613066576040517f08c379a000000000000000000000000000000000000000000000000000000000815260040161305d906153df565b60405180910390fd5b60008251116130aa576040517f08c379a00000000000000000000000000000000000000000000000000000000081526004016130a190614f26565b60405180910390fd5b6000600160003373ffffffffffffffffffffffffffffffffffffffff1673ffffffffffffffffffffffffffffffffffffffff16815260200190815260200160002060008154809291906130fc9061549a565b9190505590506000338260405160200161311792919061554b565b6040516020818303038152906040528051906020012090506040518060c001604052808781526020018681526020013373ffffffffffffffffffffffffffffffffffffffff1681526020018581526020014281526020018481525060046000838152602001908152602001600020600082015181600001908161319a91906150f2565b5060208201518160010190816131b091906150f2565b5060408201518160020160006101000a81548173ffffffffffffffffffffffffffffffffffffffff021916908373ffffffffffffffffffffffffffffffffffffffff160217905550606082015181600301908161320d91906150f2565b506080820151816004015560a08201518160050155905050336005600083815260200190815260200160002060006101000a81548173ffffffffffffffffffffffffffffffffffffffff021916908373ffffffffffffffffffffffffffffffffffffffff160217905550807f4dd2fe37361f25794d48d66f93930b6fc8d9020eacef524c420ba04167260de887873388886040516132af959493929190615577565b60405180910390a2505050505050565b6132c7613ca3565b600073ffffffffffffffffffffffffffffffffffffffff168173ffffffffffffffffffffffffffffffffffffffff16036133395760006040517f1e4fbdf70000000000000000000000000000000000000000000000000000000081526004016133309190614a2c565b60405180910390fd5b61334281613d2a565b50565b61334d61399c565b600073ffffffffffffffffffffffffffffffffffffffff166005600083815260200190815260200160002060009054906101000a900473ffffffffffffffffffffffffffffffffffffffff1673ffffffffffffffffffffffffffffffffffffffff16036133ef576040517f08c379a00000000000000000000000000000000000000000000000000000000081526004016133e690615727565b60405180910390fd5b6006600082815260200190815260200160002060003373ffffffffffffffffffffffffffffffffffffffff1673ffffffffffffffffffffffffffffffffffffffff16815260200190815260200160002060009054906101000a900460ff161561348d576040517f08c379a000000000000000000000000000000000000000000000000000000000815260040161348490615acc565b60405180910390fd5b6007600082815260200190815260200160002060009054906101000a900460ff16156134ee576040517f08c379a00000000000000000000000000000000000000000000000000000000081526004016134e590614e4e565b60405180910390fd5b6000600460008381526020019081526020016000206040518060c001604052908160008201805461351e90614cd3565b80601f016020809104026020016040519081016040528092919081815260200182805461354a90614cd3565b80156135975780601f1061356c57610100808354040283529160200191613597565b820191906000526020600020905b81548152906001019060200180831161357a57829003601f168201915b505050505081526020016001820180546135b090614cd3565b80601f01602080910402602001604051908101604052809291908181526020018280546135dc90614cd3565b80156136295780601f106135fe57610100808354040283529160200191613629565b820191906000526020600020905b81548152906001019060200180831161360c57829003601f168201915b505050505081526020016002820160009054906101000a900473ffffffffffffffffffffffffffffffffffffffff1673ffffffffffffffffffffffffffffffffffffffff1673ffffffffffffffffffffffffffffffffffffffff16815260200160038201805461369890614cd3565b80601f01602080910402602001604051908101604052809291908181526020018280546136c490614cd3565b80156137115780601f106136e657610100808354040283529160200191613711565b820191906000526020600020905b8154815290600101906020018083116136f457829003601f168201915b50505050508152602001600482015481526020016005820154815250509050348160a001511115613777576040517f08c379a000000000000000000000000000000000000000000000000000000000815260040161376e90615b38565b60405180910390fd5b60008160a001513461378991906158f7565b90508160a0015160026000846040015173ffffffffffffffffffffffffffffffffffffffff1673ffffffffffffffffffffffffffffffffffffffff16815260200190815260200160002060008282546137e2919061592b565b925050819055508160a00151600360008581526020019081526020016000206000828254613810919061592b565b9250508190555060016006600085815260200190815260200160002060003373ffffffffffffffffffffffffffffffffffffffff1673ffffffffffffffffffffffffffffffffffffffff16815260200190815260200160002060006101000a81548160ff021916908315150217905550600081111561394b5760003373ffffffffffffffffffffffffffffffffffffffff16826040516138af90615312565b60006040518083038185875af1925050503d80600081146138ec576040519150601f19603f3d011682016040523d82523d6000602084013e6138f1565b606091505b5050905080613949573373ffffffffffffffffffffffffffffffffffffffff167faf73b0b217208b61be286bbc37095bce7eb8b9ccf617244c2f0f154e8e04e3ff836040516139409190614778565b60405180910390a25b505b3373ffffffffffffffffffffffffffffffffffffffff16837f5b452208b4e892b820b916ec0fc222b056ad975669fe6bc6d89d9588d4968d6660405160405180910390a350506139996139f3565b50565b60006139a6613e6d565b905060028160000154036139e6576040517f3ee5aeb500000000000000000000000000000000000000000000000000000000815260040160405180910390fd5b6002816000018190555050565b60006139fd613e6d565b90506001816000018190555050565b7f000000000000000000000000000000000000000000000000000000000000000073ffffffffffffffffffffffffffffffffffffffff163073ffffffffffffffffffffffffffffffffffffffff161480613ab957507f000000000000000000000000000000000000000000000000000000000000000073ffffffffffffffffffffffffffffffffffffffff16613aa0613e95565b73ffffffffffffffffffffffffffffffffffffffff1614155b15613af0576040517fe07c8dba00000000000000000000000000000000000000000000000000000000815260040160405180910390fd5b565b613afa613ca3565b50565b8173ffffffffffffffffffffffffffffffffffffffff166352d1902d6040518163ffffffff1660e01b8152600401602060405180830381865afa925050508015613b6557506040513d601f19601f82011682018060405250810190613b629190615b6d565b60015b613ba657816040517f4c9c8ce3000000000000000000000000000000000000000000000000000000008152600401613b9d9190614a2c565b60405180910390fd5b7f360894a13ba1a3210667c828492db98dca3e2076cc3735a920a3ca505d382bbc60001b8114613c0d57806040517faa1d49a4000000000000000000000000000000000000000000000000000000008152600401613c049190614a11565b60405180910390fd5b613c178383613eec565b505050565b7f000000000000000000000000000000000000000000000000000000000000000073ffffffffffffffffffffffffffffffffffffffff163073ffffffffffffffffffffffffffffffffffffffff1614613ca1576040517fe07c8dba00000000000000000000000000000000000000000000000000000000815260040160405180910390fd5b565b613cab613f5f565b73ffffffffffffffffffffffffffffffffffffffff16613cc961232f565b73ffffffffffffffffffffffffffffffffffffffff1614613d2857613cec613f5f565b6040517f118cdaa7000000000000000000000000000000000000000000000000000000008152600401613d1f9190614a2c565b60405180910390fd5b565b6000613d34613e45565b905060008160000160009054906101000a900473ffffffffffffffffffffffffffffffffffffffff169050828260000160006101000a81548173ffffffffffffffffffffffffffffffffffffffff021916908373ffffffffffffffffffffffffffffffffffffffff1602179055508273ffffffffffffffffffffffffffffffffffffffff168173ffffffffffffffffffffffffffffffffffffffff167f8be0079c531659141344cd1fd0a4f28419497f9722a3daafe3b4186f6b6457e060405160405180910390a3505050565b600080613e0c613f67565b90508091505090565b613e1d613f92565b565b613e27613f92565b613e3081613fd2565b50565b613e3b613f92565b613e43614058565b565b60007f9016d09d72d40fdae2fd8ceac6b6234c7706214fd39c1cd1e609a0528c199300905090565b60007f9b779b17422d0df92223018b32b4d1fa46e071723d6817e2486d003becc55f00905090565b6000613ec37f360894a13ba1a3210667c828492db98dca3e2076cc3735a920a3ca505d382bbc60001b614079565b60000160009054906101000a900473ffffffffffffffffffffffffffffffffffffffff16905090565b613ef582614083565b8173ffffffffffffffffffffffffffffffffffffffff167fbc7cd75a20ee27fd9adebab32041f755214dbc6bffa90cc0225b39da2e5c2d3b60405160405180910390a2600081511115613f5257613f4c8282614150565b50613f5b565b613f5a6141d4565b5b5050565b600033905090565b60007ff0c57e16840df040f15088dc2f81fe391c3923bec73e23a9662efc9c229c6a0060001b905090565b613f9a614211565b613fd0576040517fd7e6bcf800000000000000000000000000000000000000000000000000000000815260040160405180910390fd5b565b613fda613f92565b600073ffffffffffffffffffffffffffffffffffffffff168173ffffffffffffffffffffffffffffffffffffffff160361404c5760006040517f1e4fbdf70000000000000000000000000000000000000000000000000000000081526004016140439190614a2c565b60405180910390fd5b61405581613d2a565b50565b614060613f92565b600061406a613e6d565b90506001816000018190555050565b6000819050919050565b60008173ffffffffffffffffffffffffffffffffffffffff163b036140df57806040517f4c9c8ce30000000000000000000000000000000000000000000000000000000081526004016140d69190614a2c565b60405180910390fd5b8061410c7f360894a13ba1a3210667c828492db98dca3e2076cc3735a920a3ca505d382bbc60001b614079565b60000160006101000a81548173ffffffffffffffffffffffffffffffffffffffff021916908373ffffffffffffffffffffffffffffffffffffffff16021790555050565b60606000808473ffffffffffffffffffffffffffffffffffffffff168460405161417a9190615bd6565b600060405180830381855af49150503d80600081146141b5576040519150601f19603f3d011682016040523d82523d6000602084013e6141ba565b606091505b50915091506141ca858383614231565b9250505092915050565b600034111561420f576040517fb398979f00000000000000000000000000000000000000000000000000000000815260040160405180910390fd5b565b600061421b613e01565b60000160089054906101000a900460ff16905090565b60608261424657614241826142c0565b6142b8565b6000825114801561426e575060008473ffffffffffffffffffffffffffffffffffffffff163b145b156142b057836040517f9996b3150000000000000000000000000000000000000000000000000000000081526004016142a79190614a2c565b60405180910390fd5b8190506142b9565b5b9392505050565b6000815111156142d257805160208201fd5b6040517fd6bda27500000000000000000000000000000000000000000000000000000000815260040160405180910390fd5b50805461431090614cd3565b6000825580601f106143225750614341565b601f0160209004906000526020600020908101906143409190614344565b5b50565b5b8082111561435d576000816000905550600101614345565b5090565b6000604051905090565b600080fd5b600080fd5b6000819050919050565b61438881614375565b811461439357600080fd5b50565b6000813590506143a58161437f565b92915050565b6000602082840312156143c1576143c061436b565b5b60006143cf84828501614396565b91505092915050565b600081519050919050565b600082825260208201905092915050565b60005b838110156144125780820151818401526020810190506143f7565b60008484015250505050565b6000601f19601f8301169050919050565b600061443a826143d8565b61444481856143e3565b93506144548185602086016143f4565b61445d8161441e565b840191505092915050565b600073ffffffffffffffffffffffffffffffffffffffff82169050919050565b600061449382614468565b9050919050565b6144a381614488565b82525050565b6000819050919050565b6144bc816144a9565b82525050565b600060c08201905081810360008301526144dc818961442f565b905081810360208301526144f0818861442f565b90506144ff604083018761449a565b8181036060830152614511818661442f565b905061452060808301856144b3565b61452d60a08301846144b3565b979650505050505050565b600080fd5b600080fd5b7f4e487b7100000000000000000000000000000000000000000000000000000000600052604160045260246000fd5b61457a8261441e565b810181811067ffffffffffffffff8211171561459957614598614542565b5b80604052505050565b60006145ac614361565b90506145b88282614571565b919050565b600067ffffffffffffffff8211156145d8576145d7614542565b5b6145e18261441e565b9050602081019050919050565b82818337600083830152505050565b600061461061460b846145bd565b6145a2565b90508281526020810184848401111561462c5761462b61453d565b5b6146378482856145ee565b509392505050565b600082601f83011261465457614653614538565b5b81356146648482602086016145fd565b91505092915050565b614676816144a9565b811461468157600080fd5b50565b6000813590506146938161466d565b92915050565b6146a281614488565b81146146ad57600080fd5b50565b6000813590506146bf81614699565b92915050565b600080600080600060a086880312156146e1576146e061436b565b5b60006146ef88828901614396565b955050602086013567ffffffffffffffff8111156147105761470f614370565b5b61471c8882890161463f565b945050604086013567ffffffffffffffff81111561473d5761473c614370565b5b6147498882890161463f565b935050606061475a88828901614684565b925050608061476b888289016146b0565b9150509295509295909350565b600060208201905061478d60008301846144b3565b92915050565b6000602082840312156147a9576147a861436b565b5b60006147b7848285016146b0565b91505092915050565b60008115159050919050565b6147d5816147c0565b82525050565b60006020820190506147f060008301846147cc565b92915050565b6000806040838503121561480d5761480c61436b565b5b600061481b85828601614396565b925050602061482c858286016146b0565b9150509250929050565b600080600080600060a086880312156148525761485161436b565b5b600086013567ffffffffffffffff8111156148705761486f614370565b5b61487c8882890161463f565b955050602086013567ffffffffffffffff81111561489d5761489c614370565b5b6148a98882890161463f565b945050604086013567ffffffffffffffff8111156148ca576148c9614370565b5b6148d68882890161463f565b93505060606148e788828901614684565b92505060806148f8888289016146b0565b9150509295509295909350565b600067ffffffffffffffff8211156149205761491f614542565b5b6149298261441e565b9050602081019050919050565b600061494961494484614905565b6145a2565b9050828152602081018484840111156149655761496461453d565b5b6149708482856145ee565b509392505050565b600082601f83011261498d5761498c614538565b5b813561499d848260208601614936565b91505092915050565b600080604083850312156149bd576149bc61436b565b5b60006149cb858286016146b0565b925050602083013567ffffffffffffffff8111156149ec576149eb614370565b5b6149f885828601614978565b9150509250929050565b614a0b81614375565b82525050565b6000602082019050614a266000830184614a02565b92915050565b6000602082019050614a41600083018461449a565b92915050565b60006020820190508181036000830152614a61818461442f565b905092915050565b60008060008060008060c08789031215614a8657614a8561436b565b5b600087013567ffffffffffffffff811115614aa457614aa3614370565b5b614ab089828a0161463f565b965050602087013567ffffffffffffffff811115614ad157614ad0614370565b5b614add89828a0161463f565b9550506040614aee89828a016146b0565b945050606087013567ffffffffffffffff811115614b0f57614b0e614370565b5b614b1b89828a0161463f565b9350506080614b2c89828a01614684565b92505060a0614b3d89828a01614396565b9150509295509295509295565b60008060008060808587031215614b6457614b6361436b565b5b6000614b7287828801614396565b945050602085013567ffffffffffffffff811115614b9357614b92614370565b5b614b9f8782880161463f565b935050604085013567ffffffffffffffff811115614bc057614bbf614370565b5b614bcc8782880161463f565b9250506060614bdd87828801614684565b91505092959194509250565b60008060008060808587031215614c0357614c0261436b565b5b600085013567ffffffffffffffff811115614c2157614c20614370565b5b614c2d8782880161463f565b945050602085013567ffffffffffffffff811115614c4e57614c4d614370565b5b614c5a8782880161463f565b935050604085013567ffffffffffffffff811115614c7b57614c7a614370565b5b614c878782880161463f565b9250506060614c9887828801614684565b91505092959194509250565b7f4e487b7100000000000000000000000000000000000000000000000000000000600052602260045260246000fd5b60006002820490506001821680614ceb57607f821691505b602082108103614cfe57614cfd614ca4565b5b50919050565b7f426f6f6b206f776e657220646f6573206e6f7420657869737400000000000000600082015250565b6000614d3a6019836143e3565b9150614d4582614d04565b602082019050919050565b60006020820190508181036000830152614d6981614d2d565b9050919050565b7f4f6e6c792074686520617574686f722063616e2075706461746520746865206260008201527f6f6f6b0000000000000000000000000000000000000000000000000000000000602082015250565b6000614dcc6023836143e3565b9150614dd782614d70565b604082019050919050565b60006020820190508181036000830152614dfb81614dbf565b9050919050565b7f426f6f6b2064656c657465640000000000000000000000000000000000000000600082015250565b6000614e38600c836143e3565b9150614e4382614e02565b602082019050919050565b60006020820190508181036000830152614e6781614e2b565b9050919050565b7f5469746c652063616e6e6f7420626520656d7074790000000000000000000000600082015250565b6000614ea46015836143e3565b9150614eaf82614e6e565b602082019050919050565b60006020820190508181036000830152614ed381614e97565b9050919050565b7f4950465320486173682063616e6e6f7420626520656d70747900000000000000600082015250565b6000614f106019836143e3565b9150614f1b82614eda565b602082019050919050565b60006020820190508181036000830152614f3f81614f03565b9050919050565b60008190508160005260206000209050919050565b60006020601f8301049050919050565b600082821b905092915050565b600060088302614fa87fffffffffffffffffffffffffffffffffffffffffffffffffffffffffffffffff82614f6b565b614fb28683614f6b565b95508019841693508086168417925050509392505050565b6000819050919050565b6000614fef614fea614fe5846144a9565b614fca565b6144a9565b9050919050565b6000819050919050565b61500983614fd4565b61501d61501582614ff6565b848454614f78565b825550505050565b600090565b615032615025565b61503d818484615000565b505050565b5b818110156150615761505660008261502a565b600181019050615043565b5050565b601f8211156150a65761507781614f46565b61508084614f5b565b8101602085101561508f578190505b6150a361509b85614f5b565b830182615042565b50505b505050565b600082821c905092915050565b60006150c9600019846008026150ab565b1980831691505092915050565b60006150e283836150b8565b9150826002028217905092915050565b6150fb826143d8565b67ffffffffffffffff81111561511457615113614542565b5b61511e8254614cd3565b615129828285615065565b600060209050601f83116001811461515c576000841561514a578287015190505b61515485826150d6565b8655506151bc565b601f19841661516a86614f46565b60005b828110156151925784890151825560018201915060208501945060208101905061516d565b868310156151af57848901516151ab601f8916826150b8565b8355505b6001600288020188555050505b505050505050565b600060608201905081810360008301526151de818661442f565b905081810360208301526151f2818561442f565b905061520160408301846144b3565b949350505050565b7f4e6f742074686520617574686f72000000000000000000000000000000000000600082015250565b600061523f600e836143e3565b915061524a82615209565b602082019050919050565b6000602082019050818103600083015261526e81615232565b9050919050565b7f4e6f2066756e647320746f207769746864726177000000000000000000000000600082015250565b60006152ab6014836143e3565b91506152b682615275565b602082019050919050565b600060208201905081810360008301526152da8161529e565b9050919050565b600081905092915050565b50565b60006152fc6000836152e1565b9150615307826152ec565b600082019050919050565b600061531d826152ef565b9150819050919050565b7f5472616e73666572206661696c65640000000000000000000000000000000000600082015250565b600061535d600f836143e3565b915061536882615327565b602082019050919050565b6000602082019050818103600083015261538c81615350565b9050919050565b7f417574686f722063616e6e6f7420626520656d70747900000000000000000000600082015250565b60006153c96016836143e3565b91506153d482615393565b602082019050919050565b600060208201905081810360008301526153f8816153bc565b9050919050565b7f417574686f722068617320746f206861766520616e2061646472657373000000600082015250565b6000615435601d836143e3565b9150615440826153ff565b602082019050919050565b6000602082019050818103600083015261546481615428565b9050919050565b7f4e487b7100000000000000000000000000000000000000000000000000000000600052601160045260246000fd5b60006154a5826144a9565b91507fffffffffffffffffffffffffffffffffffffffffffffffffffffffffffffffff82036154d7576154d661546b565b5b600182019050919050565b60008160601b9050919050565b60006154fa826154e2565b9050919050565b600061550c826154ef565b9050919050565b61552461551f82614488565b615501565b82525050565b6000819050919050565b615545615540826144a9565b61552a565b82525050565b60006155578285615513565b6014820191506155678284615534565b6020820191508190509392505050565b600060a0820190508181036000830152615591818861442f565b905081810360208301526155a5818761442f565b90506155b4604083018661449a565b81810360608301526155c6818561442f565b90506155d560808301846144b3565b9695505050505050565b7f4f6e6c7920617574686f7220697320617574686f72697a656420746f2064656c60008201527f657465207468697320626f6f6b00000000000000000000000000000000000000602082015250565b600061563b602d836143e3565b9150615646826155df565b604082019050919050565b6000602082019050818103600083015261566a8161562e565b9050919050565b6000819050919050565b600067ffffffffffffffff82169050919050565b60006156aa6156a56156a084615671565b614fca565b61567b565b9050919050565b6156ba8161568f565b82525050565b60006020820190506156d560008301846156b1565b92915050565b7f426f6f6b20646f6573206e6f7420657869737400000000000000000000000000600082015250565b60006157116013836143e3565b915061571c826156db565b602082019050919050565b6000602082019050818103600083015261574081615704565b9050919050565b7f43616e6e6f74206769667420746f20796f757273656c66000000000000000000600082015250565b600061577d6017836143e3565b915061578882615747565b602082019050919050565b600060208201905081810360008301526157ac81615770565b9050919050565b7f496e76616c696420726563697069656e74000000000000000000000000000000600082015250565b60006157e96011836143e3565b91506157f4826157b3565b602082019050919050565b60006020820190508181036000830152615818816157dc565b9050919050565b7f526563697069656e7420616c7265616479206f776e73207468697320626f6f6b600082015250565b60006158556020836143e3565b91506158608261581f565b602082019050919050565b6000602082019050818103600083015261588481615848565b9050919050565b7f496e73756666696369656e742066756e647320746f2067696674000000000000600082015250565b60006158c1601a836143e3565b91506158cc8261588b565b602082019050919050565b600060208201905081810360008301526158f0816158b4565b9050919050565b6000615902826144a9565b915061590d836144a9565b92508282039050818111156159255761592461546b565b5b92915050565b6000615936826144a9565b9150615941836144a9565b92508282019050808211156159595761595861546b565b5b92915050565b600081905092915050565b6000615975826143d8565b61597f818561595f565b935061598f8185602086016143f4565b80840191505092915050565b60006159a7828861596a565b91506159b3828761596a565b91506159bf828661596a565b91506159cb8285615534565b6020820191506159db8284615534565b6020820191508190509695505050505050565b7f4475706c69636174650000000000000000000000000000000000000000000000600082015250565b6000615a246009836143e3565b9150615a2f826159ee565b602082019050919050565b60006020820190508181036000830152615a5381615a17565b9050919050565b7f426f6f6b20616c7265616479207075726368617365642062792074686973206160008201527f6464726573730000000000000000000000000000000000000000000000000000602082015250565b6000615ab66026836143e3565b9150615ac182615a5a565b604082019050919050565b60006020820190508181036000830152615ae581615aa9565b9050919050565b7f46756e647320746f6f206c6f7700000000000000000000000000000000000000600082015250565b6000615b22600d836143e3565b9150615b2d82615aec565b602082019050919050565b60006020820190508181036000830152615b5181615b15565b9050919050565b600081519050615b678161437f565b92915050565b600060208284031215615b8357615b8261436b565b5b6000615b9184828501615b58565b91505092915050565b600081519050919050565b6000615bb082615b9a565b615bba81856152e1565b9350615bca8185602086016143f4565b80840191505092915050565b6000615be28284615ba5565b91508190509291505056fea26469706673582212203f66ecca4264a14ba5b431d44f7a0b10954f54ab7019c1562cd2e0e14455879d64736f6c634300081b0033",
  "linkReferences": {},
  "deployedLinkReferences": {}
}